:0E0FE000E4FF120BC6E4FF120C9743E18022DF
:100BC600EFB408005062900BD3F8282873020BEBA1
:100BD600020BF3020BFB020C03020C0B020C1302BA
:100BE6000C1B020C2543F60275B102802E43F60457
:100BF60075B104802643F60875B108801E43F610C9
:100C060075B110801643F62075B120800E43F6406C
:100C160075B140800643F68075B180E4F5B2224393
:090C2600A20875B540E4F5B62200
:100C9700EFB40800504A900CA4F8282873020CBC43
:100CA700020CC0020CC4020CC8020CCC020CD3020A
:100CB7000CDA020CE1C2FA800EC2FA8011C2FA8085
:100CC70014C2FA8017D2FAC2F9C2F822D2FAC2F9CC
:100CD700D2F822D2FAD2F9C2F822D2FAD2F9D2F84D
:010CE70022EA
:0F004600E4FF120BC6120C9712001E43E180223A
:05001E00D2AED2AF22BA
:100E0100E490002BF090002BE0C3940A748094804E
:100E1100501F120EDA90002BE025E02417F582E432
:100E21003400F583EEF0A3EFF090002BE004F080A6
:0A0E3100D47B017A0079170207E470
:100EDA00120FEEAFF8AD077C007E00ED7806CEC3A8
:100EEA0013CE13D8F9FDAC06AFE27E00EF7802C349
:0B0EFA0033CE33CED8F92DFFEE3CFEC6
:010F050022C9
:0A0FEE00C2FCD2FB438701020DC3D1
:1007E40090002D1205FC00000000E4900031F0A3FD
:1007F400F0A3F0A3F0A3EBF0A3EAF0A3E9F0E490F4
:10080400002CF090002CE0C3940A74809480400380
:1008140002090E120DC390002CE07033900035E0F5
:10082400FBA3E0FAA3E0F91204ACFFAEF0E4FCFD94
:1008340090002D1205F090002DA3A3E0FEA3E0FF8D
:10084400900033EEF0A3EFF0900031EE0209019036
:10085400002DE0F8A3E0F9A3E0FAA3E0FBC000C098
:1008640001C002C003900035E0FBA3E0FAA3E0F965
:1008740090002CE075F002A4F58285F0831204D771
:10088400FFE4FCFDD003D002D001D000EB2FFFEA3F
:1008940035F0FEED39FDEC38FC90002D1205F0909A
:1008A4000035E0FBA3E0FAA3E0F990002CE075F03A
:1008B40002A4F58285F0831204D7FFAEF0C3900042
:1008C40032E09F900031E09E5005EEF0A3EFF0D3AC
:1008D400900034E09F900033E09E4025900035E086
:1008E400FBA3E0FAA3E0F990002CE075F002A4F574
:1008F4008285F0831204D7FF900033E5F0F0A3EF74
:10090400F090002CE004F002080790002DE0FCA316
:10091400E0FDA3E0FEA3E0FFC006C007900033E0C3
:10092400FEA3E0FF900032E02FFF900031E03EABE9
:1009340007FAD007D006C3EF9BFFEE9AFEED9400B2
:10094400FDEC9400FC90002D1205F090002DE0FCCD
:10095400A3E0FDA3E0FEA3E0FF78031205DD900011
:0E0964002D1205F090002DA3A3E0FEA3E0FFEE
:010972002262
:03005B000200267A
:05002600C2FCC2FB3228
:100F0600D28CEF4E601C758ACA758CFF208D0A90B4
:100F16000015E060F7D2CA80F3C28DEF1F70E31EA2
:050F260080E0C28C22F6
:100E740090006EEEF0A3EFF0120DC3D28C90006ED2
:100E8400E07002A3E0601B758A67758CEA308DFD03
:100E9400C28D90006FE024FFF090006EE034FFF00C
:050EA40080DBC28C227E
:060D8300C10441007000F4
:100CE800C2AFE4F5B175B20143B3C043B4C0F5B5C2
:100CF80075B614439620C2A2C2807FB87E0B120E2E
:100D080074C2A2C280E4F5A2D2AFD2ACD2CAD2EFEA
:100D180043B7207FE87E03120E747F807E257D0016
:0E0D28007C00120F4F12002E120FE002005539
:100DC300900070E0C39402748094804030C2A2C249
:100DD30080D2A5D2A4D2A6C2A1C2A0D283E4F0C27B
:100DE30005900038F0A3F0C2AF75C7AA75C7555375
:0E0DF3009FFD75C7AA75C755439F8080EA22F1
:03004300020E3B6F
:100E3B00C0E0C083C082C0D0A2AF9203C2AF75C75F
:100E4B00AA75C75553A3F7A20392AF900070E004A5
:100E5B00F0E0C394027480948040057402F0C2AD3C
:090E6B00D0D0D082D083D0E03257
:0A0D890047004B00000000000000CE
:0600550075BEFFD2C622B9
:100ADD00E4900071F0120FA37F64120FBA7F101211
:100AED000FBA1200037F65120FBA7B017A00794BA2
:100AFD007D07120D3690004FE0FF90004EE02FF075
:100B0D0090004EE0C39FFFA3F090004EE0C39FF016
:100B1D00120F2BE4900071F0900071E0FFC3940769
:100B2D00748094805026744B2FF582E43400F58345
:100B3D00E0FF120FD1900071E0244BF582E43400F8
:0F0B4D00F583EFF0900071E004F080CC020F70A0
:100FA300E4FFD2C5E5C020E30B0FEFD394FA7480BE
:060FB300948040F0C2C56D
:010FB9002215
:10000300E4FFD2C5D2C4C2C3E5C020E30B0FEFD3D4
:0A00130094FA7480948040F0C2C596
:01001D0022C0
:100F7000E4FFD2C4C2C3E5C054106410700B0FEF7D
:090F8000D394FA7480948040EDD2
:010F89002245
:100FBA00E4FE8FBCC2C3E5C020E30B0EEED394FA65
:060FCA007480948040F0E9
:010FD00022FE
:050D3600900072EDF0D9
:100D3B00E4FE900072E0FDEEC39D5025D2C2C2C30B
:100D4B00E4FFE5C020E30B0FD3EF94FA748094809B
:100D5B0040F0E5BC120484740129F9E43AFA0E80E0
:100D6B00D1C2C2C2C3E4FFE5C020E30B0FEFD394A3
:070D7B00FA7480948040F03F
:010D8200224E
:100F2B0090004BE0547FF0A3E0547FF0A3E0543FDC
:100F3B00F0A3E0543FF0A3E05407F0A3E0541FF0FC
:040F4B00A3E0F0220D
:0410000000000000EC
:100F8A00785E7C007D017BFF7A1079007E007F0409
:080F9A0012045EE4900062F015
:010FA200222C
:100D9300C105420038000042003A00004200400210
:080DA300C844003C0000000000
:10005E00E4900043F0A3F0A3F0A3F0A3F0A3F0A369
:10006E00F0A3F0A28633900042F0E0600302038D0D
:10007E007F32FE120E74C2CAA286E433900042F0A2
:10008E00E0600302038D7F0212062D120046D20598
:10009E00E4900043F0A3F0C2837FDC7E05120E7461
:1000AE00D2837FF47E01120E74A287E43390004255
:1000BE00F0E0701E7F1EFE120E74A287E4339000D5
:1000CE0042F0E07011D2807FDC7E05120E74D2A257
:1000DE008004C2A2C280900044E004F0700690003A
:1000EE0043E004F0C3900044E094E1900043E094B8
:1000FE000040A4120E01900045EEF0A3EFF0900028
:10010E003AEEF0A3EFF07F1F120FF87F057E00127C
:10011E000E747F1F120FF87F057E00120E74900072
:10012E003AE0FF120FF87F057E00120E7490003A2F
:10013E00A3E0FF120FF87F057E00120E74120E015F
:10014E00900045EEF0A3EFF0120E01900045EEF098
:10015E00A3EFF0C39429EE9400400CD3E0940490E6
:10016E000045E0940140347FE87E03120E74900047
:10017E0045E0FEA3E0FFC39429EE94004009D3EFBF
:10018E009404EE94014014C2A57FF47E01120E7405
:10019E00D2A57FF47E01120E7480EC120E01900037
:1001AE0045EEF0A3EFF0C283C2A5C2A4900049E4CD
:1001BE0075F001120496FED3E5F094B0EE9404406F
:1001CE003EE4900049F0A3F07F2F120FF87F057EDA
:1001DE0000120E747F2F120FF87F057E00120E7420
:1001EE00900045E0FF120FF87F057E00120E74900E
:1001FE000045A3E0FF120FF87F057E00120E74C3B8
:10020E00900046E0949A900045E09401408D7FFA6C
:10021E007E00120E747FFA7E00120E74E49000437C
:10022E00F0A3F07FF47E01120E74C2A4C2A57FDC8F
:10023E007E05120E74D2A4D2A57F3F120FF87F0551
:10024E007E00120E747F3F120FF87F057E00120E95
:10025E0074900045E0FF120FF87F057E00120E74B9
:10026E00900045A3E0FF120FF87F057E00120E747A
:10027E00900044E004F07006900043E004F0D39048
:10028E000044E0942C900043E094014096120E013D
:10029E00900047EEF0A3EFF0C3949AEE9401400C59
:1002AE00D3E094B6900047E09403402D7FE87E03A0
:1002BE00120E74120E01900047EEF0A3EFF0C394ED
:1002CE009AEE9401400FD3E094B6900047E0940369
:1002DE005003020389C2A580FCD2A5D2A4120E013E
:1002EE00900047EEF0A3EFF0900040EEF0A3EFF099
:1002FE0090003AE0FEA3E0A3F0EEA3F0900040E001
:10030E00FEA3E090003EF0EEA3F0120ADDC2AD12A5
:10031E000EA9D2AD90003CE0FF90004BE0B507B5C2
:10032E0090003DE0FF90004CE0B507A990003EE044
:10033E00FF90004DE0B5079D90003FE0FF90004E0E
:10034E00E06F70917F4F120FF87F057E00120E74D2
:10035E007F4F120FF87F057E00120E74900040E062
:10036E00FF120FF87F057E00120E74900040A3E07E
:0F037E00FF120FF87F057E00120E74C2A480FCE0
:01038D00224D
:10062D00E4900064F0A3F0A3F0A3F0A3F090001504
:10063D00E07004C2CA8002D2CAEF14602C14700399
:10064D000206DA14700302073E14700302077F24BA
:10065D000460030207E3C2A47DB87C0B7F07120C74
:10066D002FD2A4120DC3D2CA22E4900068F09000DC
:10067D0068E0C3940374809480504FC283C2A5C2B6
:10068D00A4C2A67DE87C037F07120C2FD283D2A5CE
:10069D00D2A4D2A6E4900066F0A3F07F077E0012EC
:1006AD000F06120DC3900067E004F070069000660F
:1006BD00E004F0C3900067E09440900066E094067B
:1006CD0040D9900068E004F080A4D2CA22E49000E2
:1006DD0068F0900068E0C3940374809480504FC21A
:1006ED0083C2A5C2A4C2A67D967C007F32120C2FB8
:1006FD00D283D2A5D2A4D2A6E4900066F0A3F07F57
:10070D00077E00120F06120DC3900067E004F07013
:10071D0006900066E004F0C3900067E094C8900076
:10072D0066E0940040D9900068E004F080A4D2CA3D
:10073D0022C2A57DE87C037F0A120C2FD2A5120DD3
:10074D00C3D2CAE4900066F0A3F07F0A7E00120FB8
:10075D0006120DC3900067E004F07006900066E08D
:10076D0004F0C3900067E09408900066E0940740A1
:10077D00D922C2A6D2CAE4900066F0A3F07F0A7E09
:10078D0000120F06120DC3900067E004F070069082
:10079D000066E004F0C3900067E09408900066E006
:1007AD00940740D9D2A6D2CAE4900066F0A3F07F98
:1007BD000A7E00120F06120DC3900067E004F07060
:1007CD0006900066E004F0C3900067E09408900086
:0607DD0066E0940740D91C
:0107E30022F3
:0B0C2F00900069EFF0A3ECF0A3EDF0E3
:100C3A00E4A3F0A3F0120DC3D2A1C2A0900069E010
:100C4A00FF7E00120F0690006DE004F0700690001F
:100C5A006CE004F0120DC3C2A1D2A0900069E0FFBB
:100C6A007E00120F0690006DE004F0700690006C92
:100C7A00E004F090006AE0FEA3E0FFC390006DE09C
:0C0C8A009F90006CE09E40ADC2A1C2A093
:010C9600223B
:03000000020A3AB7
:100A3A00787FE4F6D8FD9000007F007E01E4F0A301
:100A4A00DFFCDEFA78007F00E4F208DFFC75812023
:030A5A00020A98F5
:10002E0075C98075CD2875CC06D2C885CCCA85CD4C
:04003E00CBD2CA2235
:03002B0002097354
:10097300C0E0C083C082C0D0C2CF900016E004F0B4
:10098300D39402748094804026E4F0900015E094A0
:100993000474809480400F900000E070125398EF2D
:1009A300C29804F08009900000E4F0900015F090E4
:1009B3000057E004F07006900056E004F0900053F6
:1009C300E004F0900056E07004A3E06414701A2071
:1009D3000502B283900056E4F0A3F0900039E004DE
:1009E300F07006900038E004F0900038E0B402079D
:1009F300A3E0B4EE02D205900053E06464701AF0F1
:100A0300D200900055E004F07006900054E004F02A
:100A1300300106900052E004F0900054E0B40E0E52
:100A2300A3E0B41009D202900054E4F0A3F0D0D0B4
:070A3300D082D083D0E03235
:100DAB0054000100000000000000000000000000E3
:070DBB000000000000000031
:100F4F007598D2E4F587758920AB07AA06A905A87D
:100F5F0004FF7EE1FDFC12054BEFF404F58DD28EFC
:010F6F00225F
:080FF800EFA2D0929BF59922B3
:03002300020B5C71
:0D0B5C00C0E0C083C082C0D075D000C007CB
:100B6900900063E4F0C206309844C298E59930D009
:100B790002D206A29A300601B3402C900015E0FF7C
:100B890004F074012FF582E43400F583E599F090BF
:100B99000015E0C3941374809480400B5398EFC2FE
:100BA900989000007401F0900016E4F08002C29958
:020BB900D2CA9E
:0B0BBB00D007D0D0D082D083D0E03231
:100EA90090004BE0900058F090004CE0900059F011
:100EB90090004DE090005AF090004EE090005BF0F9
:100EC900900050E090005CF0900051E090005DF0DF
:010ED90022F6
:0F0FD100EFC4540F75F00AA4FEEF540F2EFF2249
:100A5D00020F8AE493A3F8E493A34003F68001F216
:100A6D0008DFF48029E493A3F85407240CC8C3339A
:100A7D00C4540F4420C8834004F456800146F6DF69
:100A8D00E4800B0102040810204080900D83E47E69
:100A9D00019360BCA3FF543F30E509541FFEE4935E
:100AAD00A360010ECF54C025E060A840B8E493A325
:100ABD00FAE493A3F8E493A3C8C582C8CAC583CA50
:100ACD00F0A3C8C582C8CAC583CADFE9DEE780BE08
:010DC2000030
:10038E00E709F608DFFA8046E709F208DFFA803E51
:10039E0088828C83E709F0A3DFFA8032E309F6083E
:1003AE00DFFA8078E309F208DFFA807088828C83A6
:1003BE00E309F0A3DFFA806489828A83E0A3F6085A
:1003CE00DFFA805889828A83E0A3F208DFFA804C34
:1003DE0080D280FA80C680D4806980F2803380100B
:1003EE0080A680EA809A80A880DA80E280CA803374
:1003FE0089828A83ECFAE493A3C8C582C8CCC583EC
:10040E00CCF0A3C8C582C8CCC583CCDFE9DEE780BB
:10041E000D89828A83E493A3F608DFF9ECFAA9F03A
:10042E00EDFB2289828A83ECFAE0A3C8C582C8CC90
:10043E00C583CCF0A3C8C582C8CCC583CCDFEADEA9
:10044E00E880DB89828A83E493A3F208DFF980CC0B
:10045E0088F0EF60010E4E60C388F0ED2402B40404
:10046E000050B9F582EB2402B4040050AF232345AB
:06047E0082239003DE73EF
:10048400BB010689828A83F0225002F722BBFE0157
:02049400F32251
:10049600C5F0F8A3E028F0C5F0F8E58215827002F1
:0604A6001583E038F0228E
:1004AC00BB010A89828A83E0F5F0A3E0225006871B
:1004BC00F009E71922BBFE07E3F5F009E3192289DD
:0B04CC00828A83E493F5F07401932210
:1004D700BB0110E58229F582E5833AF583E0F5F063
:1004E700A3E0225009E92582F886F008E622BBFE40
:1004F7000AE92582F8E2F5F008E222E5832AF58386
:08050700E993F5F0A3E993224A
:10050F0075F008758200EF2FFFEE33FECD33CDCCA3
:10051F0033CCC58233C5829BED9AEC99E582984026
:10052F000CF582EE9BFEED9AFDEC99FC0FD5F0D603
:10053F00E4CEFBE4CDFAE4CCF9A88222B800C1B92D
:10054F000059BA002DEC8BF084CFCECDFCE5F0CB6B
:10055F00F97818EF2FFFEE33FEED33FDEC33FCEBA4
:10056F0033FB10D703994004EB99FB0FD8E5E4F95F
:10057F00FA227818EF2FFFEE33FEED33FDEC33FC4C
:10058F00C933C910D7059BE99A4007EC9BFCE99A40
:10059F00F90FD8E0E4C9FAE4CCFB2275F010EF2F85
:1005AF00FFEE33FEED33FDCC33CCC833C810D70785
:1005BF009BEC9AE899400AED9BFDEC9AFCE899F8C0
:0E05CF000FD5F0DAE4CDFBE4CCFAE4C8F92253
:1005DD00E8600FECC313FCED13FDEE13FEEF13FFFC
:0305ED00D8F12220
:0C05F000ECF0A3EDF0A3EEF0A3EFF0227E
:1005FC00A8828583F0D083D08212061312061312C0
:10060C000613120613E473E493A3C583C5F0C583E4
:10061C00C8C582C8F0A3C583C5F0C583C8C582C848
:01062C0022AB
:00000001FF
