:10057F00D28CEF4E601C758ACA758CFF208D0A9045
:10058F000023E060F7D2CA80F3C28DEF1F70E31E25
:05059F0080E0C28C2287
:1004B60090001FEEF0A3EFF0120633D28C90001FCF
:1004C600E07002A3E0601B758A67758CEA308DFDCB
:1004D600C28D900020E024FFF090001FE034FFF072
:0504E60080DBC28C2246
:1005C500D28CEF4E6012758A67758CEA308DFDC24C
:0B05D5008DEF1F70ED1E80EAC28C222B
:04062F0000000000C7
:07060E00C1004200210000C1
:1005E00078177C007D017BFF7A06792F7E007F04DF
:0B05F0001200D3E490001BF00200009A
:0106330022A4
:1001F400E490000DF0A3F0A3F0A3F0A3F09000238B
:10020400E07004C2CA8002D2CAEF14602C147003D6
:100214000202A114700302030514700302034624AE
:100224000460030203AAC2A47DB87C0B7F071204F6
:100234004ED2A4120633D2CA22E4900011F09000E8
:1002440011E0C3940374809480504FC283C2A5C24A
:10025400A4C2A67DE87C037F0712044ED283D2A5F4
:10026400D2A4D2A6E490000FF0A3F07F077E001280
:10027400057F120633900010E004F0700690000F22
:10028400E004F0C3900010E0944090000FE0940666
:1002940040D9900011E004F080A4D2CA22E4900076
:1002A40011F0900011E0C3940374809480504FC205
:1002B40083C2A5C2A4C2A67D967C007F3212044EDE
:1002C400D283D2A5D2A4D2A6E490000FF0A3F07FEB
:1002D400077E0012057F120633900010E004F070D0
:1002E4000690000FE004F0C3900010E094C8900062
:1002F4000FE0940040D9900011E004F080A4D2CA29
:1003040022C2A57DE87C037F0A12044ED2A5120600
:1003140033D2CAE490000FF0A3F07F0A7E001205E6
:100324007F120633900010E004F0700690000FE096
:1003340004F0C3900010E0940890000FE09407408C
:10034400D922C2A6D2CAE490000FF0A3F07F0A7E9D
:100354000012057F120633900010E004F07006903E
:10036400000FE004F0C3900010E0940890000FE048
:10037400940740D9D2A6D2CAE490000FF0A3F07F2C
:100384000A7E0012057F120633900010E004F0701C
:100394000690000FE004F0C3900010E09408900071
:0603A4000FE0940740D9B0
:0103AA002230
:0B044E00900012EFF0A3ECF0A3EDF023
:10045900E4A3F0A3F0120633D2A1C2A0900012E0E7
:10046900FF7E0012057F900016E004F070069000F0
:1004790015E004F0120633C2A1D2A0900012E0FFE9
:100489007E0012057F900016E004F07006900015BA
:10049900E004F0900013E0FEA3E0FFC3900016E033
:0C04A9009F900015E09E40ADC2A1C2A0D3
:0104B5002224
:030000000203AB4D
:1003AB00787FE4F6D8FD9000007F007E01E4F0A397
:1003BB00DFFCDEFA78007F00E4F208DFFC758120B9
:0303CB0002040920
:0A061500470006000000000000008E
:10051D00900006E0900000F0900007E0900001F0E0
:10052D00900008E0900002F0900009E0900003F0C8
:10053D0090000BE0900004F090000CE0900005F0AE
:01054D00228B
:10054E00900005E090000CF0900004E090000BF09D
:10055E00900003E0900009F0900002E0900008F097
:10056E00900001E0900007F0900000E0900006F08F
:01057E00225A
:1005FB00EF75F00A84C454F0FEEF75F00A84EE2513
:03060B00F0FF22DB
:0F062000EFC4540F75F00AA4FEEF540F2EFF2203
:0B04EB0090001CEBF0A3EAF0A3E9F086
:1004F600E4FFFEED24FEFCEFC39C501890001CE0C8
:10050600FBA3E0FAA3E0F98F827583001200F92EAF
:06051600FE0F80DFAF06BE
:01051C0022BC
:1005A4007598D2E4F587758920AB07AA06A905A832
:1005B40004FF7EE1FDFC120162EFF404F58DD28E9E
:0105C4002214
:1003CE000205E0E493A3F8E493A34003F68001F260
:1003DE0008DFF48029E493A3F85407240CC8C33330
:1003EE00C4540F4420C8834004F456800146F6DFFF
:1003FE00E4800B010204081020408090060EE47E7B
:10040E00019360BCA3FF543F30E509541FFEE493F3
:10041E00A360010ECF54C025E060A840B8E493A3BA
:10042E00FAE493A3F8E493A3C8C582C8CAC583CAE5
:10043E00F0A3C8C582C8CAC583CADFE9DEE780BE9D
:01061F0000DA
:10000300E709F608DFFA8046E709F208DFFA803EDF
:1000130088828C83E709F0A3DFFA8032E309F608CC
:10002300DFFA8078E309F208DFFA807088828C8334
:10003300E309F0A3DFFA806489828A83E0A3F608E8
:10004300DFFA805889828A83E0A3F208DFFA804CC2
:1000530080D280FA80C680D4806980F28033801099
:1000630080A680EA809A80A880DA80E280CA803302
:1000730089828A83ECFAE493A3C8C582C8CCC5837A
:10008300CCF0A3C8C582C8CCC583CCDFE9DEE7804A
:100093000D89828A83E493A3F608DFF9ECFAA9F0C9
:1000A300EDFB2289828A83ECFAE0A3C8C582C8CC1F
:1000B300C583CCF0A3C8C582C8CCC583CCDFEADE38
:1000C300E880DB89828A83E493A3F208DFF980CC9A
:1000D30088F0EF60010E4E60C388F0ED2402B40493
:1000E3000050B9F582EB2402B4040050AF2323453A
:0600F3008223900053730C
:1000F900BB010CE58229F582E5833AF583E02250BC
:1001090006E92582F8E622BBFE06E92582F8E22205
:0D011900E58229F582E5833AF583E493221F
:1001260075F008758200EF2FFFEE33FECD33CDCC90
:1001360033CCC58233C5829BED9AEC99E582984013
:100146000CF582EE9BFEED9AFDEC99FC0FD5F0D6F0
:10015600E4CEFBE4CDFAE4CCF9A88222B800C1B91A
:100166000059BA002DEC8BF084CFCECDFCE5F0CB58
:10017600F97818EF2FFFEE33FEED33FDEC33FCEB91
:1001860033FB10D703994004EB99FB0FD8E5E4F94C
:10019600FA227818EF2FFFEE33FEED33FDEC33FC39
:1001A600C933C910D7059BE99A4007EC9BFCE99A2D
:1001B600F90FD8E0E4C9FAE4CCFB2275F010EF2F72
:1001C600FFEE33FEED33FDCC33CCC833C810D70772
:1001D6009BEC9AE899400AED9BFDEC9AFCE899F8AD
:0E01E6000FD5F0DAE4CDFBE4CCFAE4C8F92240
:00000001FF
