:0E0FE200E4FF120BC6E4FF120C9743E18022DD
:100BC600EFB408005062900BD3F8282873020BEBA1
:100BD600020BF3020BFB020C03020C0B020C1302BA
:100BE6000C1B020C2543F60275B102802E43F60457
:100BF60075B104802643F60875B108801E43F610C9
:100C060075B110801643F62075B120800E43F6406C
:100C160075B140800643F68075B180E4F5B2224393
:090C2600A20875B540E4F5B62200
:100C9700EFB40800504A900CA4F8282873020CBC43
:100CA700020CC0020CC4020CC8020CCC020CD3020A
:100CB7000CDA020CE1C2FA800EC2FA8011C2FA8085
:100CC70014C2FA8017D2FAC2F9C2F822D2FAC2F9CC
:100CD700D2F822D2FAD2F9C2F822D2FAD2F9D2F84D
:010CE70022EA
:0F004600E4FF120BC6120C9712002643E1802232
:05002600D2AED2AF22B2
:100E0100E4900022F0900022E0C3940A7480948060
:100E1100501F120EDA900022E025E0240EF582E444
:100E21003400F583EEF0A3EFF0900022E004F080AF
:0A0E3100D47B017A00790E0207E479
:100EDA00120FF0AFF8AD077C007E00ED7806CEC3A6
:100EEA0013CE13D8F9FDAC06AFE27E00EF7802C349
:0B0EFA0033CE33CED8F92DFFEE3CFEC6
:010F050022C9
:0A0FF000C2FCD2FB438701020DC3CF
:1007E4009000241205FC00000000E4900028F0A30F
:1007F400F0A3F0A3F0A3EBF0A3EAF0A3E9F0E490F4
:100804000023F0900023E0C3940A74809480400392
:1008140002090E120DC3900023E0703390002CE007
:10082400FBA3E0FAA3E0F91204ACFFAEF0E4FCFD94
:100834009000241205F0900024A3A3E0FEA3E0FF9F
:1008440090002AEEF0A3EFF0900028EE0209019048
:100854000024E0F8A3E0F9A3E0FAA3E0FBC000C0A1
:1008640001C002C00390002CE0FBA3E0FAA3E0F96E
:10087400900023E075F002A4F58285F0831204D77A
:10088400FFE4FCFDD003D002D001D000EB2FFFEA3F
:1008940035F0FEED39FDEC38FC9000241205F090A3
:1008A400002CE0FBA3E0FAA3E0F9900023E075F04C
:1008B40002A4F58285F0831204D7FFAEF0C3900042
:1008C40029E09F900028E09E5005EEF0A3EFF0D3BE
:1008D40090002BE09F90002AE09E402590002CE0A1
:1008E400FBA3E0FAA3E0F9900023E075F002A4F57D
:1008F4008285F0831204D7FF90002AE5F0F0A3EF7D
:10090400F0900023E004F0020807900024E0FCA328
:10091400E0FDA3E0FEA3E0FFC006C00790002AE0CC
:10092400FEA3E0FF900029E02FFF900028E03EABFB
:1009340007FAD007D006C3EF9BFFEE9AFEED9400B2
:10094400FDEC9400FC9000241205F0900024E0FCDF
:10095400A3E0FDA3E0FEA3E0FF78031205DD900011
:0E096400241205F0900024A3A3E0FEA3E0FF00
:010972002262
:03005B000210028E
:05100200C2FCC2FB323C
:100F0600D28CEF4E601C758ACA758CFF208D0A90B4
:100F16000045E060F7D2CA80F3C28DEF1F70E31E72
:050F260080E0C28C22F6
:100E740090000EEEF0A3EFF0120DC3D28C90000E92
:100E8400E07002A3E0601B758A67758CEA308DFD03
:100E9400C28D90000FE024FFF090000EE034FFF0CC
:050EA40080DBC28C227E
:060D8300C1044100640000
:100CE800C2AFE4F5B175B20143B3C043B4C0F5B5C2
:100CF80075B614439620C2A2C2807FB87E0B120E2E
:100D080074C2A2C280E4F5A2D2AFD2ACD2CAD2EFEA
:100D180043B7207FE87E03120E747F807E257D0016
:0E0D28007C00120F4F12002E120FE202005537
:100DC300900064E0C39402748094804030C2A2C255
:100DD30080D2A5D2A4D2A6C2A1C2A0D283E4F0C27B
:100DE30005900047F0A3F0C2AF75C7AA75C7555366
:0E0DF3009FFD75C7AA75C755439F8080EA22F1
:03004300020E3B6F
:100E3B00C0E0C083C082C0D0A2AF9203C2AF75C75F
:100E4B00AA75C75553A3F7A20392AF900064E004B1
:100E5B00F0E0C394027480948040057402F0C2AD3C
:090E6B00D0D0D082D083D0E03257
:0A0D890047005100000000000000C8
:0600550075BEFFD2C622B9
:100ADD00E490000EF0120FA57F64120FBC7F101270
:100AED000FBC120F707F65120FBC7B017A0079511C
:100AFD007D07120D36900055E0FF900054E02FF069
:100B0D00900054E0C39FFFA3F0900054E0C39FF00A
:100B1D00120F2BE490000EF090000EE0FFC394072F
:100B2D0074809480502674512FF582E43400F5833F
:100B3D00E0FF120FD390000EE02451F582E4340053
:0F0B4D00F583EFF090000EE004F080CC020F8BE8
:100FA500E4FFD2C5E5C020E30B0FEFD394FA7480BC
:060FB500948040F0C2C56B
:010FBB002213
:100F7000E4FFD2C5D2C4C2C3E5C020E30B0FEFD358
:0A0F800094FA7480948040F0C2C51A
:010F8A002244
:100F8B00E4FFD2C4C2C3E5C054106410700B0FEF62
:090F9B00D394FA7480948040EDB7
:010FA400222A
:100FBC00E4FE8FBCC2C3E5C020E30B0EEED394FA63
:060FCC007480948040F0E7
:010FD20022FC
:050D360090000FEDF03C
:100D3B00E4FE90000FE0FDEEC39D5025D2C2C2C36E
:100D4B00E4FFE5C020E30B0FD3EF94FA748094809B
:100D5B0040F0E5BC120484740129F9E43AFA0E80E0
:100D6B00D1C2C2C2C3E4FFE5C020E30B0FEFD394A3
:070D7B00FA7480948040F03F
:010D8200224E
:100F2B00900051E0547FF0A3E0547FF0A3E0543FD6
:100F3B00F0A3E0543FF0A3E05407F0A3E0541FF0FC
:040F4B00A3E0F0220D
:0410070000000000E5
:1000030078007C007D017BFF7A1079077E007F04F6
:0E00130012045EE4900004F0120CE802005E9D
:100D9300C1054200470000420049000042004F02E3
:080DA300C844004B00000000F1
:10005E00E4900006F0A3F0A3F0A3F0A3F0A3F0A3A6
:10006E00F0A3F0A28633900005F0E0600302038D4A
:10007E007F32FE120E74C2CAA286E433900005F0DF
:10008E00E0600302038D7F0212062D120046D20598
:10009E00E4900006F0A3F0C2837FDC7E05120E749E
:1000AE00D2837FF47E01120E74A287E43390000592
:1000BE00F0E0701E7F1EFE120E74A287E4339000D5
:1000CE0005F0E07011D2807FDC7E05120E74D2A294
:1000DE008004C2A2C280900007E004F07006900077
:1000EE0006E004F0C3900007E094E1900006E0946F
:1000FE000040A4120E01900008EEF0A3EFF0900065
:10010E0049EEF0A3EFF07F1F120FFA7F057E00126B
:10011E000E747F1F120FFA7F057E00120E74900070
:10012E0049E0FF120FFA7F057E00120E749000490F
:10013E00A3E0FF120FFA7F057E00120E74120E015D
:10014E00900008EEF0A3EFF0120E01900008EEF012
:10015E00A3EFF0C39429EE9400400CD3E0940490E6
:10016E000008E0940140347FE87E03120E74900084
:10017E0008E0FEA3E0FFC39429EE94004009D3EFFC
:10018E009404EE94014014C2A57FF47E01120E7405
:10019E00D2A57FF47E01120E7480EC120E01900037
:1001AE0008EEF0A3EFF0C283C2A5C2A490000CE447
:1001BE0075F001120496FED3E5F094B0EE9404406F
:1001CE003EE490000CF0A3F07F2F120FFA7F057E15
:1001DE0000120E747F2F120FFA7F057E00120E741E
:1001EE00900008E0FF120FFA7F057E00120E749049
:1001FE000008A3E0FF120FFA7F057E00120E74C3F3
:10020E00900009E0949A900008E09401408D7FFAE6
:10021E007E00120E747FFA7E00120E74E4900006B9
:10022E00F0A3F07FF47E01120E74C2A4C2A57FDC8F
:10023E007E05120E74D2A4D2A57F3F120FFA7F054F
:10024E007E00120E747F3F120FFA7F057E00120E93
:10025E0074900008E0FF120FFA7F057E00120E74F4
:10026E00900008A3E0FF120FFA7F057E00120E74B5
:10027E00900007E004F07006900006E004F0D390C2
:10028E000007E0942C900006E094014096120E01B7
:10029E0090000AEEF0A3EFF0C3949AEE9401400C96
:1002AE00D3E094B690000AE09403402D7FE87E03DD
:1002BE00120E74120E0190000AEEF0A3EFF0C3942A
:1002CE009AEE9401400FD3E094B690000AE09403A6
:1002DE005003020389C2A580FCD2A5D2A4120E013E
:1002EE0090000AEEF0A3EFF090004FEEF0A3EFF0C7
:1002FE00900049E0FEA3E0A3F0EEA3F090004FE0E3
:10030E00FEA3E090004DF0EEA3F0120ADDC2AD1296
:10031E000EA9D2AD90004BE0FF900051E0B507B5AD
:10032E0090004CE0FF900052E0B507A990004DE020
:10033E00FF900053E0B5079D90004EE0FF900054F3
:10034E00E06F70917F4F120FFA7F057E00120E74D0
:10035E007F4F120FFA7F057E00120E7490004FE051
:10036E00FF120FFA7F057E00120E7490004FA3E06D
:0F037E00FF120FFA7F057E00120E74C2A480FCDE
:01038D00224D
:10062D00E490000EF0A3F0A3F0A3F0A3F09000452A
:10063D00E07004C2CA8002D2CAEF14602C14700399
:10064D000206DA14700302073E14700302077F24BA
:10065D000460030207E3C2A47DB87C0B7F07120C74
:10066D002FD2A4120DC3D2CA22E4900012F0900032
:10067D0012E0C3940374809480504FC283C2A5C20C
:10068D00A4C2A67DE87C037F07120C2FD283D2A5CE
:10069D00D2A4D2A6E4900010F0A3F07F077E001242
:1006AD000F06120DC3900011E004F07006900010BB
:1006BD00E004F0C3900011E09440900010E0940627
:1006CD0040D9900012E004F080A4D2CA22E4900038
:1006DD0012F0900012E0C3940374809480504FC2C6
:1006ED0083C2A5C2A4C2A67D967C007F32120C2FB8
:1006FD00D283D2A5D2A4D2A6E4900010F0A3F07FAD
:10070D00077E00120F06120DC3900011E004F07069
:10071D0006900010E004F0C3900011E094C8900022
:10072D0010E0940040D9900012E004F080A4D2CAE9
:10073D0022C2A57DE87C037F0A120C2FD2A5120DD3
:10074D00C3D2CAE4900010F0A3F07F0A7E00120F0E
:10075D0006120DC3900011E004F07006900010E039
:10076D0004F0C3900011E09408900010E09407404D
:10077D00D922C2A6D2CAE4900010F0A3F07F0A7E5F
:10078D0000120F06120DC3900011E004F0700690D8
:10079D000010E004F0C3900011E09408900010E008
:1007AD00940740D9D2A6D2CAE4900010F0A3F07FEE
:1007BD000A7E00120F06120DC3900011E004F070B6
:1007CD0006900010E004F0C3900011E09408900032
:0607DD0010E0940740D972
:0107E30022F3
:0B0C2F00900013EFF0A3ECF0A3EDF039
:100C3A00E4A3F0A3F0120DC3D2A1C2A0900013E066
:100C4A00FF7E00120F06900017E004F07006900075
:100C5A0016E004F0120DC3C2A1D2A0900013E0FF67
:100C6A007E00120F06900017E004F070069000163E
:100C7A00E004F0900014E0FEA3E0FFC3900017E048
:0C0C8A009F900016E09E40ADC2A1C2A0E9
:010C9600223B
:03000000020A3AB7
:100A3A00787FE4F6D8FD9000007F007E01E4F0A301
:100A4A00DFFCDEFA78007F00E4F208DFFC75812023
:030A5A00020A98F5
:10002E0075C98075CD2875CC06D2C885CCCA85CD4C
:04003E00CBD2CA2235
:03002B0002097354
:10097300C0E0C083C082C0D0C2CF900046E004F084
:10098300D39402748094804026E4F0900045E09470
:100993000474809480400F900030E070125398EFFD
:1009A300C29804F08009900030E4F0900045F09084
:1009B300005DE004F0700690005CE004F0900059E4
:1009C300E004F090005CE07004A3E06414701A206B
:1009D3000502B28390005CE4F0A3F0900048E004C9
:1009E300F07006900047E004F0900047E0B402077F
:1009F300A3E0B4EE02D205900059E06464701AF0EB
:100A0300D20090005BE004F0700690005AE004F01E
:100A1300300106900058E004F090005AE0B40E0E46
:100A2300A3E0B41009D20290005AE4F0A3F0D0D0AE
:070A3300D082D083D0E03235
:100DAB0054003100000000000000000000000000B3
:070DBB000000000000000031
:100F4F007598D2E4F587758920AB07AA06A905A87D
:100F5F0004FF7EE1FDFC12054BEFF404F58DD28EFC
:010F6F00225F
:080FFA00EFA2D0929BF59922B1
:03002300020B5C71
:0D0B5C00C0E0C083C082C0D075D000C007CB
:100B690090002FE4F0C206309844C298E59930D03D
:100B790002D206A29A300601B3402C900045E0FF4C
:100B890004F074312FF582E43400F583E599F0908F
:100B99000045E0C3941374809480400B5398EFC2CE
:100BA900989000307401F0900046E4F08002C299F8
:020BB900D2CA9E
:0B0BBB00D007D0D0D082D083D0E03231
:100EA900900051E090005EF0900052E090005FF0F9
:100EB900900053E0900060F0900054E0900061F0E1
:100EC900900056E0900062F0900057E0900063F0C7
:010ED90022F6
:0F0FD300EFC4540F75F00AA4FEEF540F2EFF2247
:100A5D00020003E493A3F8E493A34003F68001F2AC
:100A6D0008DFF48029E493A3F85407240CC8C3339A
:100A7D00C4540F4420C8834004F456800146F6DF69
:100A8D00E4800B0102040810204080900D83E47E69
:100A9D00019360BCA3FF543F30E509541FFEE4935E
:100AAD00A360010ECF54C025E060A840B8E493A325
:100ABD00FAE493A3F8E493A3C8C582C8CAC583CA50
:100ACD00F0A3C8C582C8CAC583CADFE9DEE780BE08
:010DC2000030
:10038E00E709F608DFFA8046E709F208DFFA803E51
:10039E0088828C83E709F0A3DFFA8032E309F6083E
:1003AE00DFFA8078E309F208DFFA807088828C83A6
:1003BE00E309F0A3DFFA806489828A83E0A3F6085A
:1003CE00DFFA805889828A83E0A3F208DFFA804C34
:1003DE0080D280FA80C680D4806980F2803380100B
:1003EE0080A680EA809A80A880DA80E280CA803374
:1003FE0089828A83ECFAE493A3C8C582C8CCC583EC
:10040E00CCF0A3C8C582C8CCC583CCDFE9DEE780BB
:10041E000D89828A83E493A3F608DFF9ECFAA9F03A
:10042E00EDFB2289828A83ECFAE0A3C8C582C8CC90
:10043E00C583CCF0A3C8C582C8CCC583CCDFEADEA9
:10044E00E880DB89828A83E493A3F208DFF980CC0B
:10045E0088F0EF60010E4E60C388F0ED2402B40404
:10046E000050B9F582EB2402B4040050AF232345AB
:06047E0082239003DE73EF
:10048400BB010689828A83F0225002F722BBFE0157
:02049400F32251
:10049600C5F0F8A3E028F0C5F0F8E58215827002F1
:0604A6001583E038F0228E
:1004AC00BB010A89828A83E0F5F0A3E0225006871B
:1004BC00F009E71922BBFE07E3F5F009E3192289DD
:0B04CC00828A83E493F5F07401932210
:1004D700BB0110E58229F582E5833AF583E0F5F063
:1004E700A3E0225009E92582F886F008E622BBFE40
:1004F7000AE92582F8E2F5F008E222E5832AF58386
:08050700E993F5F0A3E993224A
:10050F0075F008758200EF2FFFEE33FECD33CDCCA3
:10051F0033CCC58233C5829BED9AEC99E582984026
:10052F000CF582EE9BFEED9AFDEC99FC0FD5F0D603
:10053F00E4CEFBE4CDFAE4CCF9A88222B800C1B92D
:10054F000059BA002DEC8BF084CFCECDFCE5F0CB6B
:10055F00F97818EF2FFFEE33FEED33FDEC33FCEBA4
:10056F0033FB10D703994004EB99FB0FD8E5E4F95F
:10057F00FA227818EF2FFFEE33FEED33FDEC33FC4C
:10058F00C933C910D7059BE99A4007EC9BFCE99A40
:10059F00F90FD8E0E4C9FAE4CCFB2275F010EF2F85
:1005AF00FFEE33FEED33FDCC33CCC833C810D70785
:1005BF009BEC9AE899400AED9BFDEC9AFCE899F8C0
:0E05CF000FD5F0DAE4CDFBE4CCFAE4C8F92253
:1005DD00E8600FECC313FCED13FDEE13FEEF13FFFC
:0305ED00D8F12220
:0C05F000ECF0A3EDF0A3EEF0A3EFF0227E
:1005FC00A8828583F0D083D08212061312061312C0
:10060C000613120613E473E493A3C583C5F0C583E4
:10061C00C8C582C8F0A3C583C5F0C583C8C582C848
:01062C0022AB
:00000001FF
