:10101A00D28CEF4E601C758ACA758CFF208D0A909F
:10102A000045E060F7D2CA80F3C28DEF1F70E31E5D
:05103A0080E0C28C22E1
:100EF20090000EEEF0A3EFF0120E09D28C90000ECD
:100F0200E07002A3E0601B758A67758CEA308DFD84
:100F1200C28D90000FE024FFF090000EE034FFF04D
:050F220080DBC28C22FF
:10108400D28CEF4E6012758A67758CEA308DFDC282
:0B1094008DEF1F70ED1E80EAC28C2261
:041165000000000086
:1000030078007C007D017BFF7A1179657E007F0497
:0E00130012045EE4900004F0120D2E02005E56
:10067300E490000EF0A3F0A3F0A3F0A3F0900045E4
:10068300E07004C2CA8002D2CAEF14602C14700353
:100693000207201470030207841470030207C524A1
:1006A300046003020829C2A47DB87C0B7F07120CE7
:1006B30075D2A4120E09D2CA22E4900012F090005F
:1006C30012E0C3940374809480504FC283C2A5C2C6
:1006D300A4C2A67DE87C037F07120C75D283D2A542
:1006E300D2A4D2A6E4900010F0A3F07F077E0012FC
:1006F300101A120E09900011E004F0700690001019
:10070300E004F0C3900011E09440900010E09406E0
:1007130040D9900012E004F080A4D2CA22E49000F1
:1007230012F0900012E0C3940374809480504FC27F
:1007330083C2A5C2A4C2A67D967C007F32120C752B
:10074300D283D2A5D2A4D2A6E4900010F0A3F07F66
:10075300077E0012101A120E09900011E004F070C7
:1007630006900010E004F0C3900011E094C89000DC
:1007730010E0940040D9900012E004F080A4D2CAA3
:1007830022C2A57DE87C037F0A120C75D2A5120E46
:1007930009D2CAE4900010F0A3F07F0A7E00121081
:1007A3001A120E09900011E004F07006900010E098
:1007B30004F0C3900011E09408900010E094074007
:1007C300D922C2A6D2CAE4900010F0A3F07F0A7E19
:1007D3000012101A120E09900011E004F070069036
:1007E3000010E004F0C3900011E09408900010E0C2
:1007F300940740D9D2A6D2CAE4900010F0A3F07FA8
:100803000A7E0012101A120E09900011E004F07013
:1008130006900010E004F0C3900011E094089000EB
:0608230010E0940740D92B
:0108290022AC
:0B0C7500900013EFF0A3ECF0A3EDF0F3
:100C8000E4A3F0A3F0120E09D2A1C2A0900013E0D9
:100C9000FF7E0012101A900017E004F0700690001A
:100CA00016E004F0120E09C2A1D2A0900013E0FFDA
:100CB0007E0012101A900017E004F07006900016E3
:100CC000E004F0900014E0FEA3E0FFC3900017E002
:0C0CD0009F900016E09E40ADC2A1C2A0A3
:010CDC0022F5
:03000000020A8071
:100A8000787FE4F6D8FD9000007F007E01E4F0A3BB
:100A9000DFFCDEFA78007F00E4F208DFFC758120DD
:030AA000020ADE69
:100F8C00900051E0900058F0900052E0900059F021
:100F9C00900053E090005AF0900054E090005BF009
:100FAC00900056E090005CF0900057E090005DF0EF
:010FBC002212
:100FBD0090005DE0900057F090005CE0900056F0DE
:100FCD0090005BE0900054F090005AE0900053F0D8
:100FDD00900059E0900052F0900058E0900051F0D0
:010FED0022E1
:10004600EF75F00A84C454F0FEEF75F00A84EE25CD
:03005600F0FF2296
:0F111C00EFC4540F75F00AA4FEEF540F2EFF22FC
:0B0F5A00900064EBF0A3EAF0A3E9F0C4
:100F6500E4FFFEED24FEFCEFC39C5018900064E006
:100F7500FBA3E0FAA3E0F98F8275830012049D2E8E
:060F8500FE0F80DFAF0645
:010F8B002243
:100DC9005400310000000000000000000000000095
:070DD9000000000000000013
:101063007598D2E4F587758920AB07AA06A905A868
:1010730004FF7EE1FDFC120591EFF404F58DD28EA1
:01108300224A
:08115200EFA2D0929BF5992257
:03002300020BA22B
:0D0BA200C0E0C083C082C0D075D000C00785
:100BAF0090002FE4F0C206309844C298E59930D0F7
:100BBF0002D206A29A300601B3402C900045E0FF06
:100BCF0004F074312FF582E43400F583E599F09049
:100BDF000045E0C3941374809480400B5398EFC288
:100BEF00989000307401F0900046E4F08002C299B2
:020BFF00D2CA58
:0B0C0100D007D0D0D082D083D0E032EA
:060DE000C10441006700A0
:100D2E00C2AFE4F5B175B20143B3C043B4C0F5B57B
:100D3E0075B614439620C2A2C2807FB87E0B120EE7
:100D4E00F2C2A2C280E4F5A2D2AFD2ACD2CAD2EF26
:100D5E0043B7207FE87E03120EF27F807E257D0052
:0E0D6E007C0012106312002E12113A02115A6C
:100E0900900067E0C39402748094804030C2A2C20B
:100E190080D2A5D2A4D2A6C2A1C2A0D283E4F0C234
:100E290005900047F0A3F0C2AF75C7AA75C755531F
:0E0E39009FFD75C7AA75C755439F8080EA22AA
:03004300020E8129
:100E8100C0E0C083C082C0D0A2AF9203C2AF75C719
:100E9100AA75C75553A3F7A20392AF900067E00468
:100EA100F0E0C394027480948040057402F0C2ADF6
:090EB100D0D0D082D083D0E03211
:0E113A00E4FF120C0CE4FF120CDD43E18022F6
:100C0C00EFB408005062900C19F8282873020C31CC
:100C1C00020C39020C41020C49020C51020C590213
:100C2C000C61020C6B43F60275B102802E43F60484
:100C3C0075B104802643F60875B108801E43F61082
:100C4C0075B110801643F62075B120800E43F64026
:100C5C0075B140800643F68075B180E4F5B222434D
:090C6C00A20875B540E4F5B622BA
:100CDD00EFB40800504A900CEAF8282873020D0270
:100CED00020D06020D0A020D0E020D12020D190261
:100CFD000D20020D27C2FA800EC2FA8011C2FA80B1
:100D0D0014C2FA8017D2FAC2F9C2F822D2FAC2F985
:100D1D00D2F822D2FAD2F9C2F822D2FAD2F9D2F806
:010D2D0022A3
:0F112B00E4FF120C0C120CDD12002643E18022AF
:05002600D2AED2AF22B2
:100E4700E4900022F0900022E0C3940A748094801A
:100E5700501F120FEE900022E025E0240EF582E4E9
:100E67003400F583EEF0A3EFF0900022E004F08069
:0A0E7700D47B017A00790E02082AEC
:100FEE00121148AFF8AD077C007E00ED7806CEC337
:100FFE0013CE13D8F9FDAC06AFE27E00EF7802C334
:0B100E0033CE33CED8F92DFFEE3CFEB0
:0110190022B4
:0A114800C2FCD2FB438701020E092E
:10082A0090002412064200000000E4900028F0A381
:10083A00F0A3F0A3F0A3EBF0A3EAF0A3E9F0E490AD
:10084A000023F0900023E0C3940A7480948040034C
:10085A00020954120E09900023E0703390002CE034
:10086A00FBA3E0FAA3E0F91204F2FFAEF0E4FCFD08
:10087A00900024120636900024A3A3E0FEA3E0FF12
:10088A0090002AEEF0A3EFF0900028EE02094790BC
:10089A000024E0F8A3E0F9A3E0FAA3E0FBC000C05B
:1008AA0001C002C00390002CE0FBA3E0FAA3E0F928
:1008BA00900023E075F002A4F58285F08312051DED
:1008CA00FFE4FCFDD003D002D001D000EB2FFFEAF9
:1008DA0035F0FEED39FDEC38FC9000241206369016
:1008EA00002CE0FBA3E0FAA3E0F9900023E075F006
:1008FA0002A4F58285F08312051DFFAEF0C39000B5
:10090A0029E09F900028E09E5005EEF0A3EFF0D377
:10091A0090002BE09F90002AE09E402590002CE05A
:10092A00FBA3E0FAA3E0F9900023E075F002A4F536
:10093A008285F08312051DFF90002AE5F0F0A3EFEF
:10094A00F0900023E004F002084D900024E0FCA39C
:10095A00E0FDA3E0FEA3E0FFC006C00790002AE086
:10096A00FEA3E0FF900029E02FFF900028E03EABB5
:10097A0007FAD007D006C3EF9BFFEE9AFEED94006C
:10098A00FDEC9400FC900024120636900024E0FC52
:10099A00A3E0FDA3E0FEA3E0FF7803120623900084
:0E09AA0024120636900024A3A3E0FEA3E0FF73
:0109B800221C
:03005B000211602F
:05116000C2FCC2FB32DD
:0A0DE600470051000000000000006B
:06115A0075BEFFD2C622A3
:100B2300E490000EF01210EE7F641211057F101294
:100B3300110512109F7F651211057B017A0079510F
:100B43007D07120D7C900055E0FF900054E02FF0DC
:100B5300900054E0C39FFFA3F0900054E0C39FF0C4
:100B630012103FE490000EF090000EE0FFC39407D4
:100B730074809480502674512FF582E43400F583F9
:100B8300E0FF12111C90000EE02451F582E43400C2
:0F0B9300F583EFF090000EE004F080CC0210D458
:100F2700E4FF1210EE7F641211057F101211059075
:100F37000054E0FFA3E0900054F0A3EFF07D071208
:100F47000EBA900054E0FFA3E0900054F0A3EFF036
:030F57000210D4B1
:1010BA001210EE7F641211057F1F121105E49000D1
:0A10CA0051F07D01120EBA0210D49D
:1010EE00E4FFD2C5E5C020E30B0FEFD394FA748072
:0610FE00948040F0C2C521
:0111040022C8
:10109F00E4FFD2C5D2C4C2C3E5C020E30B0FEFD328
:0A10AF0094FA7480948040F0C2C5EA
:0110B9002214
:1010D400E4FFD2C4C2C3E5C054106410700B0FEF18
:0910E400D394FA7480948040ED6D
:0110ED0022E0
:10110500E4FE8FBCC2C3E5C020E30B0EEED394FA18
:061115007480948040F09C
:01111B0022B1
:060EBA007B017A00795172
:100EC000E4FFEFC39D502A120484F5BCC2C3E49032
:100ED0000068F0E5C020E30F900068E004F0D394D0
:100EE000FA7480948040EC740129F9E43AFA0F8096
:010EF000D130
:010EF10022DE
:050D7C0090000FEDF0F6
:100D8100E4FE90000FE0FDEEC39D5025D2C2C2C328
:100D9100E4FFE5C020E30B0FD3EF94FA7480948055
:100DA10040F0E5BC1204CA740129F9E43AFA0E8054
:100DB100D1C2C2C2C3E4FFE5C020E30B0FEFD3945D
:070DC100FA7480948040F0F9
:010DC8002208
:10103F00900051E0547FF0A3E0547FF0A3E0543FC1
:10104F00F0A3E0543FF0A3E05407F0A3E0541FF0E7
:04105F00A3E0F022F8
:100DF000C1054200470000420049000042004F0286
:080E0000C844004B0000000093
:10005E00E4900006F0A3F0A3F0A3F0A3F0A3F0A3A6
:10006E00F0A3F0A28633900005F0E0600302038D4A
:10007E007F32FE120EF2C2CAA286E433900005F061
:10008E00E0600302038D7F0212067312112BD2055C
:10009E00E4900006F0A3F0C2837FDC7E05120EF220
:1000AE00D2837FF47E01120EF2A287E43390000514
:1000BE00F0E0701E7F1EFE120EF2A287E433900057
:1000CE0005F0E07011D2807FDC7E05120EF2D2A216
:1000DE008004C2A2C280900007E004F07006900077
:1000EE0006E004F0C3900007E094E1900006E0946F
:1000FE000040A4120E47900008EEF0A3EFF090001F
:10010E0049EEF0A3EFF07F1F1211527F057E001211
:10011E000EF27F1F1211527F057E00120EF290001A
:10012E0049E0FF1211527F057E00120EF290004937
:10013E00A3E0FF1211527F057E00120EF2120E473F
:10014E00900008EEF0A3EFF0120E47900008EEF0CC
:10015E00A3EFF0C39429EE9400400CD3E0940490E6
:10016E000008E0940140347FE87E03120EF2900006
:10017E0008E0FEA3E0FFC39429EE94004009D3EFFC
:10018E009404EE94014014C2A57FF47E01120EF287
:10019E00D2A57FF47E01120EF280EC120E47900073
:1001AE0008EEF0A3EFF0C283C2A5C2A490000CE447
:1001BE0075F0011204DCFED3E5F094B0EE94044029
:1001CE003EE490000CF0A3F07F2F1211527F057EBB
:1001DE0000120EF27F2F1211527F057E00120EF2C8
:1001EE00900008E0FF1211527F057E00120EF29071
:1001FE000008A3E0FF1211527F057E00120EF2C31B
:10020E00900009E0949A900008E09401408D7FFAE6
:10021E007E00120EF27FFA7E00120EF2E4900006BD
:10022E00F0A3F07FF47E01120EF2C2A4C2A57FDC11
:10023E007E05120EF2D2A4D2A57F3F1211527F0577
:10024E007E00120EF27F3F1211527F057E00120EBB
:10025E00F2900008E0FF1211527F057E00120EF29E
:10026E00900008A3E0FF1211527F057E00120EF2DD
:10027E00900007E004F07006900006E004F0D390C2
:10028E000007E0942C900006E094014096120E4771
:10029E0090000AEEF0A3EFF0C3949AEE9401400C96
:1002AE00D3E094B690000AE09403402D7FE87E03DD
:1002BE00120EF2120E4790000AEEF0A3EFF0C39466
:1002CE009AEE9401400FD3E094B690000AE09403A6
:1002DE005003020389C2A580FCD2A5D2A4120E47F8
:1002EE0090000AEEF0A3EFF090004FEEF0A3EFF0C7
:1002FE00900049E0FEA3E0A3F0EEA3F090004FE0E3
:10030E00FEA3E090004DF0EEA3F0120B23C2AD124F
:10031E000F8CD2AD90004BE0FF900051E0B507B5C9
:10032E0090004CE0FF900052E0B507A990004DE020
:10033E00FF900053E0B5079D90004EE0FF900054F3
:10034E00E06F70917F4F1211527F057E00120EF2F8
:10035E007F4F1211527F057E00120EF290004FE079
:10036E00FF1211527F057E00120EF290004FA3E095
:0F037E00FF1211527F057E00120EF2C2A480FC06
:01038D00224D
:10002E0075C98075CD2875CC06D2C885CCCA85CD4C
:04003E00CBD2CA2235
:03002B000209B90E
:1009B900C0E0C083C082C0D0C2CF900046E004F03E
:1009C900D39402748094804026E4F0900045E0942A
:1009D9000474809480400F900030E070125398EFB7
:1009E900C29804F08009900030E4F0900045F0903E
:1009F9000063E004F07006900062E004F090005F8C
:100A0900E004F0900062E07004A3E06414701A201E
:100A19000502B283900062E4F0A3F0900048E0047C
:100A2900F07006900047E004F0900047E0B4020738
:100A3900A3E0B4EE02D20590005FE06464701AF09E
:100A4900D200900061E004F07006900060E004F0CC
:100A590030010690005EE004F0900060E0B40E0EF4
:100A6900A3E0B41009D202900060E4F0A3F0D0D062
:070A7900D082D083D0E032EF
:100AA300020003E493A3F8E493A34003F68001F266
:100AB30008DFF48029E493A3F85407240CC8C33354
:100AC300C4540F4420C8834004F456800146F6DF23
:100AD300E4800B0102040810204080900DC9E47EDD
:100AE300019360BCA3FF543F30E509541FFEE49318
:100AF300A360010ECF54C025E060A840B8E493A3DF
:100B0300FAE493A3F8E493A3C8C582C8CAC583CA09
:100B1300F0A3C8C582C8CAC583CADFE9DEE780BEC1
:010E080000E9
:10038E00E709F608DFFA8046E709F208DFFA803E51
:10039E0088828C83E709F0A3DFFA8032E309F6083E
:1003AE00DFFA8078E309F208DFFA807088828C83A6
:1003BE00E309F0A3DFFA806489828A83E0A3F6085A
:1003CE00DFFA805889828A83E0A3F208DFFA804C34
:1003DE0080D280FA80C680D4806980F2803380100B
:1003EE0080A680EA809A80A880DA80E280CA803374
:1003FE0089828A83ECFAE493A3C8C582C8CCC583EC
:10040E00CCF0A3C8C582C8CCC583CCDFE9DEE780BB
:10041E000D89828A83E493A3F608DFF9ECFAA9F03A
:10042E00EDFB2289828A83ECFAE0A3C8C582C8CC90
:10043E00C583CCF0A3C8C582C8CCC583CCDFEADEA9
:10044E00E880DB89828A83E493A3F208DFF980CC0B
:10045E0088F0EF60010E4E60C388F0ED2402B40404
:10046E000050B9F582EB2402B4040050AF232345AB
:06047E0082239003DE73EF
:10048400BB010689828A83E0225002E722BBFE0276
:09049400E32289828A83E49322A9
:10049D00BB010CE58229F582E5833AF583E0225014
:1004AD0006E92582F8E622BBFE06E92582F8E2225E
:0D04BD00E58229F582E5833AF583E4932278
:1004CA00BB010689828A83F0225002F722BBFE0111
:0204DA00F3220B
:1004DC00C5F0F8A3E028F0C5F0F8E58215827002AB
:0604EC001583E038F02248
:1004F200BB010A89828A83E0F5F0A3E022500687D5
:10050200F009E71922BBFE07E3F5F009E319228996
:0B051200828A83E493F5F074019322C9
:10051D00BB0110E58229F582E5833AF583E0F5F01C
:10052D00A3E0225009E92582F886F008E622BBFEF9
:10053D000AE92582F8E2F5F008E222E5832AF5833F
:08054D00E993F5F0A3E9932204
:1005550075F008758200EF2FFFEE33FECD33CDCC5D
:1005650033CCC58233C5829BED9AEC99E5829840E0
:100575000CF582EE9BFEED9AFDEC99FC0FD5F0D6BD
:10058500E4CEFBE4CDFAE4CCF9A88222B800C1B9E7
:100595000059BA002DEC8BF084CFCECDFCE5F0CB25
:1005A500F97818EF2FFFEE33FEED33FDEC33FCEB5E
:1005B50033FB10D703994004EB99FB0FD8E5E4F919
:1005C500FA227818EF2FFFEE33FEED33FDEC33FC06
:1005D500C933C910D7059BE99A4007EC9BFCE99AFA
:1005E500F90FD8E0E4C9FAE4CCFB2275F010EF2F3F
:1005F500FFEE33FEED33FDCC33CCC833C810D7073F
:100605009BEC9AE899400AED9BFDEC9AFCE899F879
:0E0615000FD5F0DAE4CDFBE4CCFAE4C8F9220C
:10062300E8600FECC313FCED13FDEE13FEEF13FFB5
:03063300D8F122D9
:0C063600ECF0A3EDF0A3EEF0A3EFF02237
:10064200A8828583F0D083D08212065912065912ED
:100652000659120659E473E493A3C583C5F0C58312
:10066200C8C582C8F0A3C583C5F0C583C8C582C802
:010672002265
:00000001FF
