:0300000002277F55
:0C277F00787FE4F6D8FD7581220227C6A1
:1029A60004060A060906040B040E040C040C0408AB
:1029B600040A0406FF0414140A0A050501FFFF0AA7
:1029C6000606060606060600FFFF3B003B803C00A7
:1029D6003C803D003D803E003E80FFFF3F003F8043
:1029E6000D0D0D0D0D0D0D0D0D0C08070707070735
:0429F60007070706C2
:10234F00420002000042001502C842002D039041D6
:10235F0000120042004A000042000F0000470041F7
:10236F000000000000000041005200540017000060
:10237F00000000000000000000000000000000004E
:10238F00000044000A000000004100110041004914
:10239F000041000E00410032004100390041003180
:1023AF00004100040042004C0000C104C10FC109EC
:1023BF00C18CC10DC108C102C10EC105C101C10649
:1023CF00C103C110C10AC107C10041002C00440064
:1023DF00340000000042002F0000420005000042C0
:1023EF0000500000420007000042004E0000420073
:1023FF005300004100010041000000410033004143
:0C240F00003A00420013000041000900E8
:10242C00E4900062F0A3F0A3F0A3F0A3F0F0C28359
:10243C00C2A5C2A4C2A690002BE07004C2CA80023E
:10244C00D2CAD2A1C2A07F077E0012000390006303
:10245C00E004F07006900062E004F0122AE9D2A0C9
:10246C00C2A17F077E00120003900063E004F070AD
:10247C0006900062E004F0122AE9C3900063E09435
:10248C00E8900062E0940340B9D2CAE4F0A3F0D221
:10249C0083D2A5D2A4D2A6C2A1C2A0A3F0A3F07FDE
:1024AC00077E00120003122AE9900065E004F07028
:1024BC0006900064E004F0C3900065E09440900046
:1024CC0064E0940640D9900066E004F0E0C3940305
:0524DC00500302243A48
:0124E10022D8
:10263C00D3900003E09F900002E09E4013E49000D2
:10264C00ACF0A3F09000A8121F57000000008015FA
:10265C00900002E0FCA3E0FDC3EF9DFFEE9C900018
:10266C00ACF0A3EFF0900002E0FEA3E0FFC39000FB
:10267C0016E09FFF900015E09E9000AEF0A3EFF0E7
:10268C009000ACE0FEA3E0FF7C0D7DAC121F88C077
:10269C0006C007A3E0FEA3E0FBAA06E4F9F8D00706
:1026AC00D006121E959000A8121F4BE4FFFEFDFCF5
:1026BC009000A8E0F8A3E0F9A3E0FAA3E0FBC312B2
:1026CC001F27500A9000A8121F570000000090000E
:0826DC00A8A3A3E0FEA3E0FFA8
:0126E40022D3
:10280B00E4900062F0A3F0A3F0A3F0A3F0C2A490B5
:10281B00002BE07004C2CA8002D2CAD2A1C2A07F30
:10282B00077E00120003900063E004F07006900036
:10283B0062E004F0D2A0C2A17F077E0012000390D9
:10284B000063E004F07006900062E004F0122AE9E5
:10285B00C3900063E094B8900062E0940B40BCD24C
:0B286B00CAE4F0A3F0D2A4C2A1C2A0F6
:01287600223F
:1024E200E490006EF0A3F0A3F0A3F0A3F0F0C28397
:1024F200C2A5C2A4C2A690002BE07004C2CA800288
:10250200D2CAD2A1C2A07F327E0012000390006F15
:10251200E004F0700690006EE004F0D2A0C2A17F49
:10252200327E0012000390006FE004F0700690000B
:102532006EE004F0C390006FE0949690006EE09419
:102542000040BFD2CAE4F0A3F0D283D2A5D2A4D273
:10255200A6C2A1C2A0A3F0A3F07F077E00120003CF
:10256200900071E004F07006900070E004F0C390F7
:102572000071E094C8900070E0940040DC9000721A
:0C258200E004F0E0C3940350030224F0D6
:01258E00222A
:1026E500E4900062F0A3F0A3F0A3F0A3F0C2A590DC
:1026F500002BE07004C2CA8002D2CAD2A1C2A07F58
:102705000A7E00120003900063E004F0700690005A
:1027150062E004F0122AE9D2A0C2A17F0A7E00126B
:102725000003900063E004F07006900062E004F09E
:10273500122AE9C3900063E094E8900062E09403F4
:1027450040B9D2CAE4F0A3F0D2A5C2A1C2A0A3F0B9
:10275500A3F07F0A7E00120003122AE9900065E0CB
:1027650004F07006900064E004F0C3900065E09406
:0927750008900064E0940740D9CB
:01277E002238
:102B2E009000B0EEF0A3EFF0A3EBF0A3EAF0A3E970
:012B3E00F0A6
:102B3F00A3E014FDEDC3940040249000B1E0FFA387
:102B4F00E0FBA3E0FAA3E0F98D82758300EF121D7D
:102B5F00A89000B0E0F8E4F0E8A3F01D80D6E4FE02
:012B6F00FF66
:012B70002242
:102F1E00EF75F00A84C454F0FEEF75F00A84EE25C6
:032F2E00F0FF228F
:092BAD00E47B017A00791793FD25
:0B2BB600900066EBF0A3EAF0A3E9F04A
:102BC100E4FFFEED24FEFCEFC39C5018900066E08C
:102BD100FBA3E0FAA3E0F98F82758300121D692E31
:062BE100FE0F80DFAF06CD
:012BE70022CB
:0B2C51009000B6EBF0A3EAF0A3E9F05E
:102C5C00E4FFFE0FED14FCEFC39C50189000B6E09F
:102C6C00FBA3E0FAA3E0F98F82758300121D692E95
:062C7C00FE0F80E0AF0630
:012C8200222F
:0E2F6200E4F589F58E758C9C758A40D28C2220
:102EA60075C98075CD2875CC06D2C885CCCA85CDA6
:042EB600CBD2CA228F
:1016D40090006274FFF0E4A3F0A3F0A3F0A3F0A3DE
:1016E400F0A3F0A3F0A3F0A3F0A3F0A3F0A2863339
:1016F400900062F0E06003021A577F32FE122BE87A
:10170400C2CAA286E433900062F0E06003021A5772
:101714001224E2122F44D208E4900064F0A3F0C231
:10172400837FDC7E05122BE8D2837FF47E01122BAB
:10173400E8A287E433900062F0E0701E7F1EFE1280
:101744002BE8A287E433900062F0E07011D2807F2E
:10175400DC7E05122BE8D2A28004C2A2C2809000D3
:1017640065E004F07006900064E004F0C390006546
:10177400E094E1900064E0940040A4122C83900073
:1017840066EEF0A3EFF0900002EEF0A3EFF07F1FFF
:101794001200467F057E00122BE87F1F1200467F51
:1017A400057E00122BE8900002E0FF1200467F0540
:1017B4007E00122BE8900002A3E0FF1200467F0592
:1017C4007E00122BE8122C83900066EEF0A3EFF05B
:1017D400122C83900066EEF0A3EFF0C39429EE94EC
:1017E40000400CD3E09404900066E0940140347F00
:1017F400E87E03122BE8900066E0FEA3E0FFC394AA
:1018040029EE94004009D3EF9404EE94014014C2ED
:10181400A57FF47E01122BE8D2A57FF47E01122B62
:10182400E880EC122C83900066EEF0A3EFF0C28304
:10183400C2A5C2A490006CE475F001121DCAFED3C7
:10184400E5F094B0EE9404403EE490006CF0A3F014
:101854007F2F1200467F057E00122BE87F2F120097
:10186400467F057E00122BE8900066E0FF120046DA
:101874007F057E00122BE8900066A3E0FF1200466D
:101884007F057E00122BE8C3900067E0949A9000D5
:1018940066E09401408D7FFA7E00122BE87FFA7E89
:1018A40000122BE8E4900064F0A3F07FF47E0112B0
:1018B4002BE8C2A4C2A57FDC7E05122BE8D2A4D2F9
:1018C400A57F3F1200467F057E00122BE87F3F1262
:1018D40000467F057E00122BE8900066E0FF1200B0
:1018E400467F057E00122BE8900066A3E0FF1200FD
:1018F400467F057E00122BE8900065E004F0700638
:10190400900064E004F0D3900065E0942C900064AF
:10191400E094014096122C83900068EEF0A3EFF05F
:10192400C3949AEE9401400CD3E094B6900068E01E
:10193400940340277FE87E03122BE8900068E0FEC2
:10194400A3E0FFC3949AEE9401400CD3EF94B6EE57
:1019540094035003021A51C2A580FCD2A5D2A4124A
:101964002C83900068EEF0A3EFF0900015EEF0A346
:10197400EFF0900002E0FEA3E090000AF0EEA3F086
:10198400900015E0FEA3E090000CF0EEA3F07B01C4
:101994007A00790A9029E2E493FF7401939000722B
:1019A400CFF0A3EFF0A3740AF07D0412213A1229B8
:1019B40046C2AD122CB5D2AD7F011213357B017A2C
:1019C4000079419029E2740193240AFDE4933400E0
:1019D400FC9000737404F0122A9D90000AE0FF90BA
:1019E4000041E06F600302195B90000BE0FF900080
:1019F40042E06F600302195B90000CE0FF9000432B
:101A0400E06F600302195B90000DE0FF900044E07A
:101A14006F600302195B7F4F1200467F057E001240
:101A24002BE87F4F1200467F057E00122BE89000C2
:101A340015E0FF1200467F057E00122BE89000158A
:101A4400A3E0FF1200467F057E00122BE8C2A4D259
:031A54000E80FA07
:011A5700226C
:102CB500900041E090003BF0900042E090003CF035
:102CC500900043E090003DF0900044E090003EF01D
:102CD500900046E090003FF0900047E0900040F003
:012CE50022CC
:102CE600900040E0900047F090003FE0900046F0F2
:102CF60090003EE0900044F090003DE0900043F0EC
:102D060090003CE0900042F090003BE0900041F0E3
:012D1600229A
:10005E00E4900055F0A374FFF0E4A3F0A3F0A3F036
:10006E00A3F0A3F0A3F0C2AFF5B575B606C2A2C257
:10007E00807FB87E0B122BE8C2A2C280E4F5A2A24A
:10008E008733900056F0D2AFD2ACD2CAD2EF43B77C
:10009E00207FE87E03122BE87B017A0079349029C9
:1000AE00DE740193241EFDE4933400FC90007374FF
:1000BE0004F0122A9D900034E0B4A515A3E0B436E6
:1000CE0010A3E0B45A0BA3E0B4E70690002C740121
:1000DE00F07FC07E127D007C00122DCAE4F5B17552
:1000EE00B201F5B575B61643962043B3C043B4C0FE
:1000FE00122EA6122F70122F861216D420016CD239
:10010E0001E490005BF0A3F0122946900047E0C393
:10011E00940F4029900046E0D3940C502090004458
:10012E00E0941F5018900043E09417501090004236
:10013E00E0943B5008900041E0943B4022122CE6A4
:10014E0090005CE004F0700690005BE004F0C39059
:10015E00005CE0940A90005BE0940040AB8007C224
:10016E00AD122CB5D2AD7F07121335C2AF75C7AA2B
:10017E0075C75575A3C0D2AFD2ADC206E490003399
:10018E00F0C208C20490004CF0A3F0900014E054AA
:10019E001FF0A287E433900056F0E070267F32FE07
:1001AE00122BE820871DD390004DE0940190004C57
:1001BE00E0940040EE900014E0541F4420F0D2086A
:1001CE0012242CE490004CF0A3F090002CE070026E
:1001DE00C2A62008030202BBC2833000030202BB88
:1001EE00D200E490005BF0A3F012002E7B017A00A7
:1001FE00790A9029E2740193240AFDE4933400FCF9
:10020E009000737404F0122A9D90000BE0FF900092
:10021E0002E4F0A3EFF0E07F00FE900002F0A3EF07
:10022E00F090000AE0FDEDFF900002EEF0A3EFF07B
:10023E0090000DE0FF900015E4F0A3EFF0E07F00DA
:10024E00FE900015F0A3EFF090000CE0FDEDFF9096
:10025E000015EEF0A3EFF0C3EE9404501D900002D3
:10026E00E0FEA3E0FF900016E09F900015E09E4098
:10027E0009D3EF9400EE94005033900002E4F0A303
:10028E007496F09000157402F0A374EEF090005C7A
:10029E00E004F0700690005BE004F0C390005CE0B8
:1002AE00940A90005BE0940050030201F790004D19
:1002BE00E020E04B20044AD204122AE9122946908B
:1002CE000047E0C3940F4029900046E0D3940C50B1
:1002DE0020900044E0941F5018900043E094175073
:1002EE0010900042E0943B5008900041E0943B4057
:1002FE0005122CE6800BC2AD122CB5D2AD8002C217
:10030E0004122AE9122F70122C83900059EEF0A3DA
:10031E00EFF0900048E07003021068900017E03094
:10032E00E70302041D90002BE0FDC3940950030265
:10033E0004187B017A007917122BB690002BE0245B
:10034E0015F582E43400F583E06F60030204169025
:10035E00005BF0A3F090005BE0FEA3E0FFC394050A
:10036E00EE9400502474182FF582E43400F583E0E7
:10037E00FEEF903AF393B5061090005CE004F07037
:10038E00D490005BE004F080CC90005BE07004A39E
:10039E00E06405707590005BF0A37406F090002B7E
:1003AE00E0FF90005BE0FCA3E0FDC39FEC940050E7
:1003BE002AAF0574172FF582E43400F583E0FE743E
:1003CE00122FF582E43400F583EEF090005CE00429
:1003DE00F070CA90005BE004F080C290002BE02425
:1003EE00FBF0900017E04480F07B017A00791790C3
:1003FE00002BE0FD122BB690002BE02415F582E4C5
:10040E003400F583EFF080078000E4900017F09041
:10041E000017E02456700302099B24FE7003020AA3
:10042E000A147003020F9C2402600302105A9000FB
:10043E0018E01470030205351470030207B8240285
:10044E0060030209339029A6122BAD9029A6E493DE
:10045E002415F582E43400F583E06F704D90005B57
:10046E00F0A304F090005BE0FEA3E0FFD39408EE4F
:10047E009400502EEF25E0FFEE33FE74CE2FF58262
:10048E0074293EF583E493FE740193FF122E4412F9
:10049E002AE990005CE004F070CA90005BE004F082
:1004AE0080C2900014E054E08008900014E054E004
:1004BE00440190001AF0900013E0900019F090297A
:1004CE00A7122BAD9029A7E493FE2415F582E434F0
:1004DE0000F583EFF074162EF582E43400F5837484
:1004EE0055F0E490005BF0A3F09029A7E493FF9001
:1004FE00005BE0FCA3E0FDC39FEC94004003021000
:10050E005A74172DF582E43400F583E0FF1200468D
:10051E007F057E00122BE890005CE004F070CA901C
:10052E00005BE004F080C29029A8E493FD90002BBC
:10053E00E0C39D500302071E7B017A007917122B30
:10054E00B69029A8E4932415F582E43400F583E0EF
:10055E006F6003020714900019E0C3940F500280DD
:10056E003390001AE0FFD3940C5003EF70028024F6
:10057E0090001BE0FFD3941F5003EF700280159084
:10058E00001CE0D39417500CA3E0943B5006A3E05C
:10059E00943B400B900014E054E044040207269074
:1005AE00005BE4F0A37402F090005BE0FEA3E0FFBA
:1005BE00C39408EE9400503B74172FF582E4340078
:1005CE00F583E0FF122F1E90005BE0FCA3E0FDC35D
:1005DE0074089DFDE49CFC74412DF58274003CF57D
:1005EE0083EFF090005CE004F070BD90005BE004DF
:1005FE00F080B5900042E0900041F0900043E09012
:10060E000042F0900044E0900043F0900045E090EE
:10061E000044F0E4A3F0122D177F647E00122BE845
:10062E0012294690001AE0FF900046E0FE6F601817
:10063E00EF2401FDE433FCEE6D7001EC600A9000D6
:10064E0014E054E044018006900014E054E0900061
:10065E001AF0900019E0FF900047E0FE6F601AEF6D
:10066E002401FDE433FCEE6D7001EC600C9000147F
:10067E00E054E0440190001AF090001BE0FF90005F
:10068E0044E0FE6F601AEF2401FDE433FCEE6D7062
:10069E0001EC600C900014E054E0440190001AF05C
:1006AE0090001CE0FF900043E0FE6F6027EF2401F6
:1006BE00FDE433FCEE6D7001EC601990001CE0B4AB
:1006CE001706900043E0600C900014E054E04401E3
:1006DE0090001AF090001DE0FF900042E0FE6F6067
:1006EE003BEF2401FDE433FCEE6D7001EC602D90C8
:1006FE00001DE0B43B06900042E06020900014E044
:10070E0054E044018012900014E054E0440280084A
:10071E00900014E054E0440390001AF0900013E0AF
:10072E00900019F07B017A0079179029A9E493FDC6
:10073E00122BB69029A9E493FE2415F582E4340019
:10074E00F583EFF074162EF582E43400F5837455BC
:10075E00F0E490005BF0A3F09029A9E493FF9000E1
:10076E005BE0FCA3E0FDC39FEC9400502674172DB4
:10077E00F582E43400F583E0FF1200467F057E002B
:10078E00122BE890005CE004F070CD90005BE0046A
:10079E00F080C590001AE0541F600302105A9000BA
:1007AE003474A5F0A3743602090A9029AAE493FDC5
:1007BE0090002BE0C39D50030208737B017A0079F1
:1007CE0017122BB69029AAE4932415F582E434006F
:1007DE00F583E06F60030208697B017A0079199056
:1007EE0029E293FF740193900072CFF0A3EFF0E42F
:1007FE00A3F07D0512213A7B017A00791E9029E241
:10080E00E493FC740193FD9000737405F0122A9D1D
:10081E0090001AE0FF90001FE06F9000146007E058
:10082E0054E044018003E054E090001AF090001967
:10083E00E0FF90001EE06F600C900014E054E04466
:10084E000190001AF090001BE0FF900020E06F6016
:10085E0020900014E054E044018012900014E05403
:10086E00E044028008900014E054E0440390001A23
:10087E00F0900013E0900019F07B017A0079179048
:10088E0029ABE493FD122BB69029ABE493FE24150D
:10089E00F582E43400F583EFF074162EF582E4341D
:1008AE0000F5837455F0E490005BF0A3F09029AB53
:1008BE00E493FF90005BE0FCA3E0FDC39FEC94008B
:1008CE00502674172DF582E43400F583E0FF1200F4
:1008DE00467F057E00122BE890005CE004F070CDA0
:1008EE0090005BE004F080C590001AE0541F600396
:1008FE0002105A900036745AF0A374E7F090002C50
:10090E007401F0FB7A0079349029DEE493FF7401D0
:10091E0093900072CFF0A3EFF0A3741EF07D04123B
:10092E00213A02105A900013E0900019F090001432
:10093E00E054E0440590001AF07B017A0079177DAF
:10094E0006122BB690001BEFF0A37455F0E4900046
:10095E005BF0A3F090005BE0FEA3E0FFC39406EE15
:10096E009400400302105A74172FF582E43400F5F8
:10097E0083E0FF1200467F057E00122BE890005C9C
:10098E00E004F070CF90005BE004F080C790001997
:10099E00E0D394004003E004F0900019E0FFD394FC
:1009AE0009400302105AEF9029BA93FF900018E005
:1009BE009F400302105AA3E094014003E014F0900C
:1009CE00002BE0C39405500302105A7B017A007984
:1009DE00177D06122BB690001BE06F600302105AB3
:1009EE00900019E0D394004003E004F0900019E069
:1009FE00FF900018E0FD121A5802105A900018E0ED
:100A0E0024FE7003020B13147003020BC714700341
:100A1E00020C83147003020D7A147003020E472425
:100A2E00056003020F347B017A0079179029B0E438
:100A3E0093FD122BB69029B0E4932415F582E4347D
:100A4E0000F583E0900014B50705E054E08005E062
:100A5E0054E0440290001AF0900013E0900019F058
:100A6E00122946900047E090001BF0900046E0905F
:100A7E00001CF0900044E090001DF0900043E090C8
:100A8E00001EF0900042E090001FF0900041E090B8
:100A9E000020F07B017A0079179029B1E493FD12C2
:100AAE002BB69029B1E493FE2415F582E43400F5BB
:100ABE0083EFF074162EF582E43400F5837455F04E
:100ACE00E490005BF0A3F09029B1E493FF90005BFB
:100ADE00E0FCA3E0FDC39FEC9400400302105A74A7
:100AEE00172DF582E43400F583E0FF1200467F05F2
:100AFE007E00122BE890005CE004F070CA90005B60
:100B0E00E004F080C27B017A0079179029B2E49359
:100B1E00FD122BB69029B2E4932415F582E434002D
:100B2E00F583E0900014B50705E054E08005E0542D
:100B3E00E0440290001AF0900013E0900019F0903B
:100B4E00001B7401F0E4A3F0A3F0A3F0A3F0A3F054
:100B5E009029B3122BAE9029B3E493FE2415F5829F
:100B6E00E43400F583EFF074162EF582E43400F5CC
:100B7E00837455F0E490005BF0A3F09029B3E493F6
:100B8E00FF90005BE0FCA3E0FDC39FEC94004003EC
:100B9E0002105A74172DF582E43400F583E0FF122B
:100BAE0000467F057E00122BE890005CE004F0709A
:100BBE00CA90005BE004F080C27B017A0079179046
:100BCE0029B4E493FD122BB69029B4E4932415F5C1
:100BDE0082E43400F583E0900014B50705E054E09C
:100BEE008005E054E0440290001AF0900013E0906B
:100BFE000019F0900059E0FCA3E0FDEC90001BF012
:100C0E00A3EDF07B017A0079179029B5E493FD12DC
:100C1E002BB69029B5E493FE2415F582E43400F545
:100C2E0083EFF074162EF582E43400F5837455F0DC
:100C3E00E490005BF0A3F09029B5E493FF90005B85
:100C4E00E0FCA3E0FDC39FEC9400400302105A7435
:100C5E00172DF582E43400F583E0FF1200467F0580
:100C6E007E00122BE890005CE004F070CA90005BEE
:100C7E00E004F080C27B017A0079179029B6E493E4
:100C8E00FD122BB69029B6E4932415F582E43400B8
:100C9E00F583E0900014B50705E054E08005E054BC
:100CAE00E0440290001AF0900013E0900019F07BDF
:100CBE00017A00791B9029E2740193240AFDE493D2
:100CCE003400FC9000737404F0122A9D90001BE017
:100CDE0090001FF090001CE090001BF090001FE0B1
:100CEE0090001CF0A3E090001FF090001EE090001A
:100CFE001DF090001FE090001EF07B017A00791726
:100D0E009029B7E493FD122BB69029B7E493FE24F5
:100D1E0015F582E43400F583EFF074162EF582E4B7
:100D2E003400F5837455F0E490005BF0A3F0902945
:100D3E00B7E493FF90005BE0FCA3E0FDC39FEC944F
:100D4E0000400302105A74172DF582E43400F58327
:100D5E00E0FF1200467F057E00122BE890005CE05B
:100D6E0004F070CA90005BE004F080C27B017A0050
:100D7E0079179029ACE493FD122BB69029ACE4932D
:100D8E002415F582E43400F583E0900013B5070DC9
:100D9E00E0900019F0900014E054E0800DE0900017
:100DAE0019F0900014E054E0440290001AF07B0118
:100DBE007A00791B9029E2E493FC740193FD900074
:100DCE00737405F0122A9D7B017A0079179029AD74
:100DDE00E493FD122BB69029ADE493FE2415F58213
:100DEE00E43400F583EFF074162EF582E43400F54A
:100DFE00837455F0E490005BF0A3F09029ADE4937A
:100E0E00FF90005BE0FCA3E0FDC39FEC9400400369
:100E1E0002105A74172DF582E43400F583E0FF12A8
:100E2E0000467F057E00122BE890005CE004F07017
:100E3E00CA90005BE004F080C27B017A00791790C3
:100E4E0029AEE493FD122BB69029AEE4932415F54A
:100E5E0082E43400F583E0900013B5070DE09000B6
:100E6E0019F0900014E054E0800DE0900019F0901D
:100E7E000014E054E0440290001AF0E490005BF09D
:100E8E00A3F090005BE0FEA3E0FFC39408EE940095
:100E9E005022EF903AF093FE741B2FF582E434004B
:100EAE00F583EEF090005CE004F070D690005BE00D
:100EBE0004F080CE7B017A0079179029AFE493FD80
:100ECE00122BB69029AFE493FE2415F582E434007C
:100EDE00F583EFF074162EF582E43400F583745525
:100EEE00F0E490005BF0A3F09029AFE493FF900044
:100EFE005BE0FCA3E0FDC39FEC9400400302105A9C
:100F0E0074172DF582E43400F583E0FF1200467F5E
:100F1E00057E00122BE890005CE004F070CA900091
:100F2E005BE004F080C2900013E0900019F0900096
:100F3E0014E054E0440590001AF07B017A00791712
:100F4E007D06122BB690001BEFF0A37455F0E490C3
:100F5E00005BF0A3F090005BE0FEA3E0FFC39406FD
:100F6E00EE9400400302105A74172FF582E43400F9
:100F7E00F583E0FF1200467F057E00122BE89000FD
:100F8E005CE004F070CF90005BE004F080C790004E
:100F9E0018E014600302105A7B017A007917902929
:100FAE00B8E493FD122BB69029B8E4932415F5827C
:100FBE00E43400F583E0900014B50710E0541F44AC
:100FCE0020F054E090001AF0D2088009E054E0447A
:100FDE000290001AF0900013E0900019F07B017A55
:100FEE000079179029B9E493FD122BB69029B9E434
:100FFE0093FE2415F582E43400F583EFF074162E7B
:10100E00F582E43400F5837455F0E490005BF0A3B0
:10101E00F09029B9E493FF90005BE0FCA3E0FDC3E0
:10102E009FEC9400502674172DF582E43400F5835E
:10103E00E0FF1200467F057E00122BE890005CE078
:10104E0004F070CD90005BE004F080C5E490002BBE
:10105E00F0900048F0439810C298200C03021183C0
:10106E00C20C122AE91229467B017A00795D902979
:10107E00E2E493FC740193FD9000737405F0122A60
:10108E009D90005DE0C394FF500EA3E0C394FF500B
:10109E0007A3E0C394FF401690005D740FF0A37495
:1010AE000CF0A3741FF0A37417F0A3743BF0900020
:1010BE005DE0FF900047E0FEC39F5003021183EEF8
:1010CE009F90005DF06405705CA3E0FF900046E029
:1010DE00FED39F400690005DE004F090005EE06E4F
:1010EE007043A3E0FF900044E0FED39F40069000C3
:1010FE005DE004F090005FE0B5062AA3E0FF9000EB
:10110E0043E0FED39F400690005DE004F090006047
:10111E00E0B50611A3E0FF900042E0D39F40069099
:10112E00005DE004F090005DE0D39405403CD207F2
:10113E00200A42D20A7B017A00795D9029DEE4937F
:10114E00FC740193FD9000737401F0122A9D9000BF
:10115E005DE0FF600B9029C2E493FEEFD39E401535
:10116E00122AE97F08121335800B90002CE0B4018F
:10117E0004C207D2A6A287E433900056F0E0704274
:10118E007F1EFE122BE8900056E0704F2003069053
:10119E000038F0D203900038E0C39406401F2010B0
:1011AE0014D210D2807F1E7E00122BE8C2807F1ECA
:1011BE007E00122BE8D2A29000387408F012242C74
:1011CE0080193003167F1E7E00122BE8900056E029
:1011DE006009C203C210200802C2A2900015E0FEF0
:1011EE00A3E0FFC390005AE09F900059E09E500389
:1011FE00021281122AE92008030201D8900014E09D
:10120E00541F4440F0E4F5B175B201300544C205F7
:10121E00900057E004F0E0FFB40302D20DEFD39438
:10122E0005402F9000577405F0D2A2900030E05484
:10123E00077011D2807F1EFE122BE8C2807F1E7EA9
:10124E0000122BE8900030E004F0700690002FE0C2
:10125E0004F0300D0CC20DD209122AE97F021213CE
:10126E0035900057E0C3940350030201D812280BA7
:10127E000201D8D390005AE09423900059E09400D4
:10128E005052122AE92008030201D8900014E054AB
:10129E001F4460F0E4900057F090002FF0A3F0D2BE
:1012AE00A4C2A2900058E004F0E0FFB40102D20FF5
:1012BE00EFD3940240069000587402F01226E520F7
:1012CE000F030201D8C20FD20B122AE97F041213A8
:1012DE00350201D8300809900014E0541F4420F064
:1012EE00122AE9C20DE4900057F090002FF0A3F0FF
:1012FE00C20F900058F030090AC209122AE97F0382
:10130E00121335300B0CC20BC20F122AE97F0512D5
:10131E001335D2A4D2A5C2A1C2A0C280301003023E
:07132E0001D8C2A20201D8A0
:030023000228E0D0
:0D28E000C0E0C083C082C0D075D000C0072A
:1028ED00900098E4F0C212309840C298E59930D02B
:1028FD0002D212A29A301201B3402890002BE0FFB1
:10290D0004F074172FF582E43400F583E599F09007
:10291D00002BE0C39413400B5398EFC298900048DE
:0E292D007401F090003AE4F08002C299D2CA20
:0B293B00D007D0D0D082D083D0E03293
:03002B000222634B
:10226300C0E0C083C082C0D0C2CF900000E004F0C1
:1022730090003AE004F0D394024022E4F090002B63
:10228300E09404400F900048E070125398EFC29816
:1022930004F08009900048E4F090002BF090005186
:1022A300E004F07006900050E004F0900001E004B8
:1022B300F0900050E07004A3E06414701A20080248
:1022C300B283900050E4F0A3F0900054E004F07067
:1022D30006900053E004F0900053E0B40207A3E03B
:1022E300B4EE02D208900001E0B4642EE4F0D2050B
:1022F300900006E004F07006900005E004F0900002
:102303004DE004F0700690004CE004F030030690BA
:102313000038E004F0300702B2A6900005E0700434
:10232300A3E064047008900005F0A3F0D2029000CB
:102333004CE0B40E0EA3E0B41009D20C90004CE4B0
:0C234300F0A3F0D0D0D082D083D0E032E4
:03004300022D9FEC
:102D9F00C0E0C083C082C0D075C7AA75C75553A302
:102DAF00F7900033E004F0E0C3940240057402F0A2
:0B2DBF00C2ADD0D0D082D083D0E03273
:03005B0002001E82
:05001E00C2FCC2FB3230
:10241B0041009D0041009C00430099003200C11314
:102EBA00A2AF9213C2AF75C7AA75C75553A3F7A29B
:042ECA001392AF228E
:102C1D008FF0A4FFEC25E024CEF582E43429F58372
:102C2D007401932FFEE49335F0900094F0A3CEF051
:102C3D00A2AF9213C2AF75C7AA75C755439F01A224
:042C4D001392AF220D
:102ECE00A2AF9213C2AF75C7AA75C755539FFEA284
:042EDE001392AF227A
:102D450093FE740193FFFD900075E0FC2DF5A6EC54
:092D5500FD7C00EF2DEC3EF5A71A
:102D5E00A2AF9213C2AF75C7AA75C75543A401A2FD
:042D6E001392AF22EB
:081A5800900062EFF0A3EDF035
:101A6000900062E0FE5480900065F0EE547F90009C
:101A700062F0C394184003021D4F900062E0FF9093
:101A800029BA93FE900063E0D39E4003021D4FE409
:101A900090000DF090000CF090000BF090000AF018
:101AA000EF24F77003021B3E24096003021BD89049
:101AB000001774AAF0E4A3F0A3F0A37407F0900059
:101AC000647401F0900064E0FFD39407501DEF04AC
:101AD000FF12258F900064E0241AF582E43400F5AB
:101AE00083EFF0900064E004F080D97B017A007904
:101AF00017900062E09029E693FD122BB690002229
:101B0000EFF0A37455F0E4900064F0900062E09070
:101B100029E693FF900064E0FEC39F4003021D4F3F
:101B200074172EF582E43400F583E0FF1200467F3F
:101B3000057E00122BE8900064E004F080CD900058
:101B40001774AAF0E4A3F0A37409F0A37406F012CA
:101B50002946900047E024D0FDE4340790001BF0B4
:101B6000AF05A3EFF0900046E090001DF090004418
:101B7000E090001EF0900043E090001FF0900042C3
:101B8000E0900020F07B017A007917900062E090ED
:101B900029E693FD122BB6900021EFF0A37455F0C7
:101BA000E4900064F0900062E09029E693FF9000DA
:101BB00064E0FEC39F4003021D4F74172EF582E4BC
:101BC0003400F583E0FF1200467F057E00122BE80B
:101BD000900064E004F080CD900063E07003021D8B
:101BE0004F122C3DE4F5AF900062E025E024CEF5E5
:101BF00082E43429F583E493FE740193F5A6EEF5AF
:101C0000A7E4900064F0900062E09029BA93FF90FE
:101C10000064E0C39F502F122D5EE4FFFE122BE8FC
:101C2000900018E5AEF0900063E0FF900018E06FC0
:101C30006014900062E09029C49325A6F5A6900058
:101C400064E004F080C0900062E0FF9029BA93FE47
:101C5000900064E0C39E4003021D4CEF6401702DB0
:101C6000F005A6122D5E0000000000E4FFFE122B1E
:101C7000E8900064E0240AF582E43400F583E5AEE0
:101C8000F0900064E004F0E0C3940440D490006459
:101C9000740AF005A6122D5E0000000000E4FFFEAD
:101CA000122BE8900064E02417F582E43400F583F9
:101CB000E5AEF0900064E014F0E0D3940550D41247
:101CC0002ECE90001DE024D0E4340790001CF0A339
:101CD000E024D0FFE43407EFF090001774AAF090EE
:101CE0000019E014F0900062E0FF9029F09390005A
:101CF0001AF0900018E090001BF07B017A00791731
:101D0000EF9029E693FD122BB6900022EFF0A3741A
:101D100055F0900065E07037900064F0900062E04C
:101D20009029E693FF900064E0FEC39F5021741752
:101D30002EF582E43400F583E0FF1200467F057E35
:0F1D400000122BE8900064E004F080D0122ECE49
:011D4F002271
:0E213A0090006EEBF0A3EAF0A3E9F0A3EDF045
:102148007003022262900074E0FFC394804003028F
:102158002262900071E02FFFE433FEC3EF9480EE1B
:10216800648094804003022262122E3A122C3DE4CD
:10217800900075F0E4F5AF900072E0FEA3E0122D38
:102188004AE4FFFE122BE875AF219029E4E4122DF2
:1021980045E4FFFE122BE8900075E004F0E0C394DC
:1021A8008040D1122ECE900072E0FEA3E0FF122EE6
:1021B80044122C3DE4900075F0900075E0FFC39444
:1021C80080400302225F900074E0FEEFC39E404F00
:1021D800EEFF900071E02FFFE433FE900075E0C33E
:1021E8009FEE6480F8748098503575AF2190007226
:1021F800E0FEA3E0FFFD900075E0FC2DF5A6ECFDE8
:102208007C00EF2DEC3EF5A790006EE0FBA3E47593
:10221800F001121DE0A9F0FA121D50F5AE8027E476
:10222800F5AF9029E4122D4575AF21900072E0FEBC
:10223800A3E0FFFD900075E0FC2DF5A6ECFD7C0009
:10224800EF2DEC3EF5A7122D5E0000000000900077
:0A22580075E004F00221C1122ECE41
:012262002259
:102A9D0090006EEBF0A3EAF0A3E9F0900073E06014
:102AAD003A122C3DE4F5AFEDF5A6ECF5A7900073C9
:102ABD00E0FF14F0EF6021122D5E00000000009089
:102ACD00006EE0FBA3E475F001121DE0A9F0FAE53C
:0C2ADD00AE121D9605A680D5122ECE224A
:0A2E3A009029E4E493FE740193FF75
:102E4400122C3D75AF22EFF5A6EEF5A7122D5E000C
:072E540000000000022ECE79
:05258F00900066EFF072
:10259400D394004005E0941740037F0022122C3DA1
:1025A400E4F5AF900066E025E024CEF582E434291A
:1025B400F583E493FE740193F5A6EEF5A7E4900089
:1025C40068F0900067F0900066E09029BA93FF905D
:1025D4000067E0C39F504A122D5E900069E5AEF09B
:1025E400900066E0FE9029BA93FF900069E0FDD365
:1025F4009F500C900068E0FFED9F4003ED700912BE
:102604002ECE900067E0FF22EE9029C49325A6F514
:10261400A6900068EDF0122AE9900067E004F080CB
:10262400A5122ECE900066E09029BA93FF90006721
:07263400E0B50701227F0061
:01263B00227C
:0513350090008FEFF0B5
:10133A00D3940050030216D3E0941740030216D345
:10134A00122E3AE4900090F0900093F0900091F001
:10135A0090008FE09029BA93FF900091E0FEC39F1E
:10136A0040030214A290008FE0FD9029C493FFEE7F
:10137A008FF0A4FFED25E024CEF582E43429F5832D
:10138A007401932FFEE49335F0900094F0A3CEF00D
:10139A00122C3DE4F5AF900094E0FEA3E0F5A6EE32
:1013AA00F5A7E4900092F090008FE09029C493FF93
:1013BA00900092E0C39F501A122D5EE0249EF5829F
:1013CA00E43400F583E5AEF005A6900092E004F05F
:1013DA0080D5122ECE900091E02401FFE433FE90D6
:1013EA00009EE0FDB50722E4B5061E90008FE0904E
:1013FA0029BA93FFEDD39F5010900090E0FF900020
:10140A009EE0FE9F4003EE701F90009EE0F4700382
:10141A000214A2900093E004F0D39402507A7F64FD
:10142A007E00122E5B02139A90009EE0900090F0CC
:10143A0090008FE09029C493FF900091E08FF0A470
:10144A00FF9029E4122C2D75AF21900094E0FEA3A1
:10145A00E0F5A6EEF5A7E4900092F090008FE090F8
:10146A0029C493FF900092E0FEC39F501F749E2EE2
:10147A00F582E43400F583E0F5AE122D5E0000003B
:10148A00000005A6900092E004F080CF122ECE90C4
:10149A000091E004F002135A90008FE025E024CE78
:1014AA00F582E43429F583122E3D90008FE09029CD
:1014BA00BA93FB900091E0C39B50139029E4E49304
:1014CA00FD740193900096CDF0A3EDF08022900078
:1014DA008FE09029C493FD9029E47401932DFEE4D2
:1014EA00933400900096F0A3CEF0EB14900091F0A4
:1014FA00E4900090F0900091E0FD900090E0FFC32E
:10150A009D400302162990008FE09029C493FEEFB4
:10151A008EF0A4FF900097E02FFE900096E0122C28
:10152A0034E4F5AF900094E0FEA3E0F5A6EEF5A74B
:10153A00E4900092F090008FE09029C493FF90000D
:10154A0092E0C39F501A122D5EE0249EF582E43485
:10155A0000F583E5AEF005A6900092E004F080D590
:10156A00122ECE90008FE0FC9029C493FF90009039
:10157A00E0122C1D75AF21900094E0FEA3E0F5A6C1
:10158A00EEF5A79029E4E493FE740193FFD390004B
:10159A0097E09F900096E09E4043900090E004F50B
:1015AA00AE122D5E05A69000927401F090008FE0B5
:1015BA009029C493FF900092E0FEC39F5055749EF9
:1015CA002EF582E43400F583E0F5AE122D5E0000BC
:1015DA0000000005A6900092E004F080CFE490009D
:1015EA0092F090008FE09029C493FF900092E0FE61
:1015FA00C39F501F749E2EF582E43400F583E0F5F4
:10160A00AE122D5E000000000005A6900092E004D4
:10161A00F080CF122ECE900090E004F00214FF90DA
:10162A00008FE0FC9029C493FFED122C1D75AF21A9
:10163A00900094E0FEA3E0F5A6EEF5A7900091E0F5
:10164A0004F5AE122D5E000000000005A690008F82
:10165A00E064017042900002A3E0F5AE122D5E0034
:10166A000000000005A6900002E0F5AE122D5E0013
:10167A000000000005A6900015A3E0F5AE122D5E4D
:10168A00000000000005A6900015E0F5AE122D5EE0
:10169A00000000000005A69000907401F0900090F0
:1016AA00E0FFC39406501F743B2FF582E43400F523
:1016BA0083E0F5AE122D5E000000000005A6900042
:0916CA0090E004F080D7122ECE4E
:0116D30022F4
:102AE900900033E0C39402403BC2A2C280D2A5D277
:102AF900A4D2A6C2A1C2A0D283122ECE7F061213DF
:102B090035E4900033F0C208900053F0A3F0C2AF4F
:102B190075C7AA75C755539FFD75C7AA75C755438C
:052B29009F8080EA22FC
:05002600D2AED2AF22B2
:102A4C00EFB40800504A902A59F8282873022A71CA
:102A5C00022A75022A79022A7D022A81022A880218
:102A6C002A8F022A96C2FA800EC2FA8011C2FA800C
:102A7C0014C2FA8017D2FAC2F9C2F822D2FAC2F9F9
:102A8C00D2F822D2FAD2F9C2F822D2FAD2F9D2F87A
:012A9C002217
:10287700EFB408005062902884F828287302289C37
:102887000228A40228AC0228B40228BC0228C402E9
:1028970028CC0228D643F60275B102802E43F604EF
:1028A70075B104802643F60875B108801E43F610FB
:1028B70075B110801643F62075B120800E43F6409F
:1028C70075B140800643F68075B180E4F5B22243C6
:0928D700A20875B540E4F5B62233
:0A2F7C00C2FCD2FB438701022AE9E0
:0C2F7000E4FF122877122A4C43E1802273
:0F2F4400E4FF122877122A4C12002643E1802264
:1029FA00122F7CAFF890004AE4F0A3EFF090004A5F
:102A0A00E0FEA3E07806CEC313CE13D8F9F0EE9019
:102A1A00004AF0AFE290000FE4F0A3EFF090000F4D
:102A2A00E0FEA3E07802C333CE33CED8F9FF90009C
:102A3A004BE02FFF90004AE03EFE90000FF0A3EF1C
:022A4A00F02278
:101FB500900084121F5700000000E4900088F0A3F1
:101FC500F0A3F0A3F0A3EBF0A3EAF0A3E9F0E4900B
:101FD5000083F0122AE9900083E0703390008CE0D2
:101FE500FBA3E0FAA3E0F9121DF6FFAEF0E4FCFD59
:101FF500900084121F4B900084A3A3E0FEA3E0FF92
:1020050090008AEEF0A3EFF0900088EE0220C290D7
:102015000084E0F8A3E0F9A3E0FAA3E0FBC000C068
:1020250001C002C00390008CE0FBA3E0FAA3E0F935
:10203500900083E075F002A4F58285F083121E21DD
:10204500FFE4FCFDD003D002D001D000EB2FFFEA66
:1020550035F0FEED39FDEC38FC900084121F4B90F5
:10206500008CE0FBA3E0FAA3E0F9900083E075F0B3
:1020750002A4F58285F083121E21FFAEF0C3900005
:1020850089E09F900088E09E5005EEF0A3EFF0D325
:1020950090008BE09F90008AE09E402590008CE0A8
:1020A500FBA3E0FAA3E0F9900083E075F002A4F544
:1020B5008285F083121E21FF90008AE5F0F0A3EFE0
:1020C500F0900083E004F0E0C3940A5003021FD8A7
:1020D500900084E0FCA3E0FDA3E0FEA3E0FFC006C2
:1020E500C00790008AE0FEA3E0FF900089E02FFF83
:1020F500900088E03EAB07FAD007D006C3EF9BFF00
:10210500EE9AFEED9400FDEC9400FC900084121F05
:102115004B900084E0FCA3E0FDA3E0FEA3E0FF7884
:1021250003121F38900084121F4B900084A3A3E074
:04213500FEA3E0FF26
:012139002283
:102C8300E4900082F01229FA900082E025E0246E9D
:102C9300F582E43400F583EEF0A3EFF0900082E0D8
:102CA30004F0E0C3940A40DD7B017A00796E121FC1
:012CB300B56B
:012CB40022FD
:102E1600900041E0547FF0A3E0547FF0A3E0543FDC
:102E2600F0A3E0543FF0A3E05407F0A3E0541FF0F2
:042E3600A3E0F02203
:0F2F5300EFC4540F75F00AA4FEEF540F2EFF22A7
:062F860075BEFFD2C62259
:102F3100E4FFD2C5E5C020E3070FEFD394FA40F4D4
:022F4100C2C507
:012F4300226B
:102E8F00E4FFD2C5D2C4C2C3E5C020E3070FEFD31E
:062E9F0094FA40F4C2C5E4
:012EA500220A
:102EE200E4FFD2C4C2C3E5C030E4080FEFD394FAC2
:032EF20040F42287
:012EF50022BA
:102EF600E4FE8FBCC2C3E5C020E3080EEED394FA0D
:032F060040F42272
:012F090022A5
:052E7600122F317F6402
:102E7B00E4FE8FBCC2C3E5C020E3080EEED394FA88
:032E8B0040F422EE
:012E8E002221
:102F0A00E4FE8FBCC2C3E5C020E3080EEED394FAF8
:032F1A0040F4225E
:012F1D002291
:062D72007B017A007941AB
:102D7800E4FFEFC39D501F121D50F5BCC2C3E4FE13
:102D8800E5C020E3070EEED394FA40F4740129F964
:062D9800E43AFA0F80DCB2
:012D9E002212
:102B7100E4FEEEC39D5021D2C2C2C3E4FFE5C020F2
:102B8100E3070FEFD394FA40F4E5BC121D967401EC
:102B910029F9E43AFA0E80DAC2C2C2C3E4FFE5C001
:0B2BA10020E3080FEFD394FA40F42269
:012BAC002206
:102D1700E4FF122E767F10122F0A900044E0FFA3E3
:102D2700E0900044F0A3EFF07D07122D729000446D
:0E2D3700E0FFA3E0900044F0A3EFF0022EE2D4
:10294600E4FD122E767F10122F0A122E8F7F65124B
:102956002E7B7B017A0079417D07122B7190004511
:10296600E0FF900044E02FF0900044E0C39FFFA3F7
:10297600F0900044E0C39FF0122E16E4FD74412D42
:10298600F582E43400F583E0FF122F5374412DF5F0
:1029960082E43400F583EFF00DEDB407E0022EE299
:10002E00122E767F1F122F0AE4900041F07D0112EE
:05003E002D72022EE20C
:10000300D28CEF4E6012758ACA758CFF308DFDC29B
:0B0013008DEF1F70ED1E80EAC28C22F2
:102BE800900076EEF0A3EFF0122AE9D28C900076EE
:102BF800E07002A3E0601B758A67758CEA308DFD72
:102C0800C28D900077E024FFF0900076E034FFF06A
:052C180080DBC28C22EC
:102E5B00D28CEF4E6012758A67758CEA308DFDC28D
:0B2E6B008DEF1F70ED1E80EAC28C226C
:102DF100D28CEF4E601C758ACA758CFF208D0A90AB
:102E0100002BE060F7D2CA80F3C28DEF1F70E31E82
:052E110080E0C28C22EC
:102DCA007598D2E4F587758920AB07AA06A905A8E4
:102DDA0004FF7EE1FDFC121E95EFF404F58D9000D0
:072DEA00097403F0D28E22F0
:10004600C299C211EF30D002D211EFA2D0929BF525
:04005600993099FD47
:01005A002283
:10278B0002005EE493A3F8E493A34003F68001F206
:10279B0008DFF48029E493A3F85407240CC8C3334F
:1027AB00C4540F4420C8834004F456800146F6DF1E
:1027BB00E4800B010204081020408090234FE47E3C
:1027CB00019360BCA3FF543F30E509541FFEE49313
:1027DB00A360010ECF54C025E060A840B8E493A3DA
:1027EB00FAE493A3F8E493A3C8C582C8CAC583CA05
:1027FB00F0A3C8C582C8CAC583CADFE9DEE780BEBD
:01242B0000B0
:101D5000BB010689828A83E0225002E722BBFE0291
:091D6000E32289828A83E49322C4
:101D6900BB010CE58229F582E5833AF583E022502F
:101D790006E92582F8E622BBFE06E92582F8E22279
:0D1D8900E58229F582E5833AF583E4932293
:101D9600BB010689828A83F0225002F722BBFE012C
:021DA600F32226
:101DA800F8BB010DE58229F582E5833AF583E8F071
:101DB800225006E92582C8F622BBFE05E92582C81D
:021DC800F22205
:101DCA00C5F0F8A3E028F0C5F0F8E58215827002A4
:061DDA001583E038F02241
:101DE000A3F8E0C5F025F0F0E582158270021583B6
:061DF000E0C838F0E82213
:101DF600BB010A89828A83E0F5F0A3E022500687B8
:101E0600F009E71922BBFE07E3F5F009E319228979
:0B1E1600828A83E493F5F074019322AC
:101E2100BB0110E58229F582E5833AF583E0F5F0FF
:101E3100A3E0225009E92582F886F008E622BBFEDC
:101E41000AE92582F8E2F5F008E222E5832AF58322
:081E5100E993F5F0A3E99322E7
:101E590075F008758200EF2FFFEE33FECD33CDCC40
:101E690033CCC58233C5829BED9AEC99E5829840C3
:101E79000CF582EE9BFEED9AFDEC99FC0FD5F0D6A0
:101E8900E4CEFBE4CDFAE4CCF9A88222B800C1B9CA
:101E99000059BA002DEC8BF084CFCECDFCE5F0CB08
:101EA900F97818EF2FFFEE33FEED33FDEC33FCEB41
:101EB90033FB10D703994004EB99FB0FD8E5E4F9FC
:101EC900FA227818EF2FFFEE33FEED33FDEC33FCE9
:101ED900C933C910D7059BE99A4007EC9BFCE99ADD
:101EE900F90FD8E0E4C9FAE4CCFB2275F010EF2F22
:101EF900FFEE33FEED33FDCC33CCC833C810D70722
:101F09009BEC9AE899400AED9BFDEC9AFCE899F85C
:0E1F19000FD5F0DAE4CDFBE4CCFAE4C8F922EF
:101F2700EB9FF5F0EA9E42F0E99D42F0E89C45F010
:011F37002287
:101F3800E8600FECC313FCED13FDEE13FEEF13FF87
:031F4800D8F122AB
:0C1F4B00ECF0A3EDF0A3EEF0A3EFF02209
:101F5700A8828583F0D083D082121F6E121F6E1263
:101F67001F6E121F6EE473E493A3C583C5F0C58388
:101F7700C8C582C8F0A3C583C5F0C583C8C582C8D4
:011F87002237
:101F8800EC8EF0A4CCC5F0CCCDF8EFA4CEC5F02DE6
:101F9800FDE43CFCE8A42EC8C5F03DFDE43CFCEFA4
:0D1FA800A4FFE5F028FEE43DFDE43CFC2232
:00000001FF
