:030000000228498A
:0C284900787FE4F6D8FD7581220228900B
:102A7C0004060A060906040B040E040C040C0408D4
:102A8C00040A0406FF0414140A0A050501FFFF0AD0
:102A9C000606060606060600FFFF3B003B803C00D0
:102AAC003C803D003D803E003E80FFFF3F003F806C
:102ABC000E0D0D0D0D0D0D0D0D0C0807070707075D
:042ACC0007070706EB
:1023FA00420002000042001502C842002D0390412B
:10240A0000120042004A000042000F00004700414B
:10241A0000000000000000410052005400170000B4
:10242A0000000000000000000000000000000000A2
:10243A00000044000A000000004100110041004968
:10244A000041000E004100320041003900410031D4
:10245A00004100040042004C0000C104C10EC10842
:10246A00C10BC10CC107C102C10DC105C101C10621
:10247A00C103C10FC109C10041002C00440034004E
:10248A0000000042002F00004200050000420050F8
:10249A000000420007000042004E000042005300C4
:1024AA000041000100410000004100330041003AB0
:0A24BA000042001300004100090079
:1024D500E4900062F0A3F0A3F0A3F0A3F0F0900065
:1024E50066E0C39403748094804003022594C283FC
:1024F500C2A5C2A4C2A690002BE07004C2CA800285
:10250500D2CAD2A1C2A07F077E00122F79900063A4
:10251500E004F07006900062E004F0122C0CD2A0EA
:10252500C2A17F077E00122F79900063E004F0704E
:1025350006900062E004F0122C0CC3900063E09456
:10254500E8900062E0940340B9D2CAE4F0A3F0D267
:1025550083D2A5D2A4D2A6C2A1C2A0A3F0A3F07F24
:10256500077E00122F79122C0C900065E004F070A4
:1025750006900064E004F0C3900065E0944090008C
:0F25850064E0940640D9900066E004F00224E37D
:012594002224
:10270600D3900003E09F900002E09E4013E4900007
:10271600ACF0A3F09000A8121FE6000000008015A0
:10272600900002E0FCA3E0FDC3EF9DFFEE9C90004D
:10273600ACF0A3EFF0900002E0FEA3E0FFC3900030
:1027460016E09FFF900015E09E9000AEF0A3EFF01C
:102756009000ACE0FEA3E0FF7C0D7DAC122017C01C
:1027660006C007A3E0FEA3E0FBAA06E4F9F8D0073B
:10277600D006121F249000A8121FDAE4FFFEFDFC0B
:102786009000A8E0F8A3E0F9A3E0FAA3E0FBC312E7
:102796001FB6500A9000A8121FE600000000900025
:0827A600A8A3A3E0FEA3E0FFDD
:0127AE002208
:1028D500E4900062F0A3F0A3F0A3F0A3F0C2A490EB
:1028E500002BE07004C2CA8002D2CAD2A1C2A07F66
:1028F500077E00122F79900063E004F070069000C7
:1029050062E004F0D2A0C2A17F077E00122F799069
:102915000063E004F07006900062E004F0122C0CF5
:10292500C3900063E094B8900062E0940B40BCD281
:0B293500CAE4F0A3F0D2A4C2A1C2A02B
:012940002274
:10264F00E490006EF0A3F0A3F0A3F0A3F0F09000DD
:10265F0072E0C39403748094804003022705C28301
:10266F00C2A5C2A4C2A690002BE07004C2CA800209
:10267F00D2CAD2A1C2A07F327E00122F7990006FF2
:10268F00E004F0700690006EE004F0D2A0C2A17FCB
:10269F00327E00122F7990006FE004F070069000E8
:1026AF006EE004F0C390006FE0949690006EE0949B
:1026BF000040BFD2CAE4F0A3F0D283D2A5D2A4D2F5
:1026CF00A6C2A1C2A0A3F0A3F07F077E00122F79AC
:1026DF00900071E004F07006900070E004F0C39079
:1026EF000071E094C8900070E0940040DC9000729C
:0626FF00E004F002265D7C
:0127050022B1
:1027AF00E4900062F0A3F0A3F0A3F0A3F0C2A59011
:1027BF00002BE07004C2CA8002D2CAD2A1C2A07F8D
:1027CF000A7E00122F79900063E004F070069000EB
:1027DF0062E004F0122C0CD2A0C2A17F0A7E00127C
:1027EF002F79900063E004F07006900062E004F02F
:1027FF00122C0CC3900063E094E8900062E0940305
:10280F0040B9D2CAE4F0A3F0D2A5C2A1C2A0A3F0EE
:10281F00A3F07F0A7E00122F79122C0C900065E036
:10282F0004F07006900064E004F0C3900065E0943B
:09283F0008900064E0940740D900
:01284800226D
:102C55009000B0EEF0A3EFF0A3EBF0A3EAF0A3E948
:012C6500F07E
:102C6600A3E014FDC37480948040249000B1E0FF7B
:102C7600A3E0FBA3E0FAA3E0F98D82758300EF12CF
:102C86001E379000B0E0F8E4F0E8A3F01D80D5E42C
:022C9600FEFF3F
:012C98002219
:10303600EF75F00A84C454F0FEEF75F00A84EE25AD
:03304600F0FF2276
:092C9900E47B017A00791793FD38
:0B2CA200900066EBF0A3EAF0A3E9F05D
:102CAD00E4FFFEED24FEFCEFC39C5018900066E09F
:102CBD00FBA3E0FAA3E0F98F82758300121DF82EB5
:062CCD00FE0F80DFAF06E0
:012CD30022DE
:0B2DAF009000B6EBF0A3EAF0A3E9F0FF
:102DBA00E4FFFE0FED14FCEFC39C50189000B6E040
:102DCA00FBA3E0FAA3E0F98F82758300121DF82EA7
:062DDA00FE0F80E0AF06D1
:012DE00022D0
:0E307700E4F589F58E758C9C758A40D28C220A
:1000460075C98075CD2875CC06D2C885CCCA85CD34
:04005600CBD2CA221D
:101A5B0090006274FFF0E4A3F0A3F0A3F0A3F0A353
:101A6B00F0A3F0A3F0A3F0A3F0A3F0A3F0A28633AE
:101A7B00900062F0E06003021DDE7F32FE122D4605
:101A8B00C2CAA286E433900062F0E06003021DDE5E
:101A9B0012264F123059D207E4900064F0A3F0C223
:101AAB00837FDC7E05122D46D2837FF47E01122DBF
:101ABB0046A287E433900062F0E0701E7F1EFE1298
:101ACB002D46A287E433900062F0E07011D2807F44
:101ADB00DC7E05122D46D2A28004C2A2C2809000E9
:101AEB0065E004F07006900064E004F0C3900065BC
:101AFB00E094E1900064E0940040A4122CD4900098
:101B0B0066EEF0A3EFF0900002EEF0A3EFF07F1F74
:101B1B001230497F057E00122D467F1F1230497F00
:101B2B00057E00122D46900002E0FF1230497F0522
:101B3B007E00122D46900002A3E0FF1230497F0574
:101B4B007E00122D46122CD4900066EEF0A3EFF01F
:101B5B00122CD4900066EEF0A3EFF0C39429EE9410
:101B6B0000400CD3E09404900066E0940140347F75
:101B7B00E87E03122D46900066E0FEA3E0FFC394BF
:101B8B0029EE94004009D3EF9404EE94014014C263
:101B9B00A57FF47E01122D46D2A57FF47E01122D76
:101BAB004680EC122CD4900066EEF0A3EFF0C283CB
:101BBB00C2A5C2A490006CE475F001121E59FED3AD
:101BCB00E5F094B0EE9404403EE490006CF0A3F08A
:101BDB007F2F1230497F057E00122D467F2F12304A
:101BEB00497F057E00122D46900066E0FF123049BA
:101BFB007F057E00122D46900066A3E0FF12304950
:101C0B007F057E00122D46C3900067E0949A9000EA
:101C1B0066E09401408D7FFA7E00122D467FFA7E9E
:101C2B0000122D46E4900064F0A3F07FF47E0112C5
:101C3B002D46C2A4C2A57FDC7E05122D46D2A4D2AE
:101C4B00A57F3F1230497F057E00122D467F3F1244
:101C5B0030497F057E00122D46900066E0FF123062
:101C6B00497F057E00122D46900066A3E0FF1230DF
:101C7B00497F057E00122D46900065E004F070064A
:101C8B00900064E004F0D3900065E0942C90006425
:101C9B00E094014096122CD4900068EEF0A3EFF084
:101CAB00C3949AEE9401400CD3E094B6900068E094
:101CBB00940340277FE87E03122D46900068E0FED8
:101CCB00A3E0FFC3949AEE9401400CD3EF94B6EECD
:101CDB0094035003021DD8C2A580FCD2A5D2A41236
:101CEB002CD4900068EEF0A3EFF0900015EEF0A36B
:101CFB00EFF0900002E0FEA3E090000AF0EEA3F0FC
:101D0B00900015E0FEA3E090000CF0EEA3F07B0139
:101D1B007A00790A902AB8E493FF740193900072C9
:101D2B00CFF0A3EFF0A3740AF07D041221D3122A93
:101D3B0014C2AD122DE1D2AD7F011213217B017ABA
:101D4B00007941902AB8740193240AFDE49334007E
:101D5B00FC9000737404F0122BC090000AE0FF900B
:101D6B000041E06F6003021CE290000BE0FF90006B
:101D7B0042E06F6003021CE290000CE0FF90004316
:101D8B00E06F6003021CE290000DE0FF900044E066
:101D9B006F6003021CE27F4F1230497F057E0012F9
:101DAB002D467F4F1230497F057E00122D46900045
:101DBB0015E0FF1230497F057E00122D469000156D
:101DCB00A3E0FF1230497F057E00122D46C2A4D23C
:031DDB000D80FA7E
:011DDE0022E2
:102DE100900041E090003BF0900042E090003CF008
:102DF100900043E090003DF0900044E090003EF0F0
:102E0100900046E090003FF0900047E0900040F0D5
:012E1100229E
:102E1200900040E0900047F090003FE0900046F0C4
:102E220090003EE0900044F090003DE0900043F0BE
:102E320090003CE0900042F090003BE0900041F0B6
:012E4200226D
:10005E00E4900055F0A374FFF0E4A3F0A3F0A3F036
:10006E00A3F0A3F0A3F0C2AFF5B575B606C2A2C257
:10007E00807FB87E0B122D46C2A2C280E4F5A2A2EA
:10008E008733900056F0D2AFD2ACD2CAD2EF43B77C
:10009E00207FE87E03122D467B017A007934902A68
:1000AE00B4740193241EFDE4933400FC9000737429
:1000BE0004F0122BC0900034E064A57017A3E06426
:1000CE00367011A3E0645A700BA3E064E7700590DC
:1000DE00002C04F07F807E257D007C00122ECDE466
:1000EE00F5B175B201F5B575B61643962043B3C09A
:1000FE0043B4C012004612308512309B121A5B2098
:10010E000107D2017F07121321C2AF75C7AA75C7A7
:10011E005575A3C0D2AFD2ADC206E4900033F0C283
:10012E0007C20490004CF0A3F0900014E0541FF0AE
:10013E00A287E433900056F0E070267F32FE122D37
:10014E004620871DD390004DE0940190004CE09422
:10015E000040EE900014E0541F4420F0D207122409
:10016E00D5E490004CF0A3F090002CE07002C2A6F3
:10017E00200703020259C283300003020259D20043
:10018E00E490005BF0A3F012002E7B017A00790A56
:10019E00902AB8740193240AFDE4933400FC900075
:1001AE00737404F0122BC090000BE0FF900002E479
:1001BE00F0A3EFF0E07F00FE900002F0A3EFF090CE
:1001CE00000AE0FDEDFF900002EEF0A3EFF09000CC
:1001DE000DE0FF900015E4F0A3EFF0E07F00FE903D
:1001EE000015F0A3EFF090000CE0FDEDFF90001570
:1001FE00EEF0A3EFF0C3EE9404501D900002E0FE6B
:10020E00A3E0FF900016E09F900015E09E4009D3FA
:10021E00EF9400EE94005033900002E4F0A3749635
:10022E00F09000157402F0A374EEF090005CE00400
:10023E00F0700690005BE004F0C390005CE0940A5E
:10024E0090005BE09400500302019590004DE02079
:10025E00E063200462D204122C0C122A1490004780
:10026E00E0C3940F74809480403D900046E0D39498
:10027E000C748094805030900044E0941F748094ED
:10028E00805024900043E09417748094805018900E
:10029E000042E0943B74809480500C900041E094B6
:1002AE003B748094804005122E12800BC2AD122D2D
:1002BE00E1D2AD8002C204122C0C123085122CD465
:1002CE00900059EEF0A3EFF0900048E0700302109A
:1002DE002D900017E030E7030203DD90002BE0FDC8
:1002EE00C394097480948050030203D87B017A0072
:1002FE007917122CA290002BE02415F582E434001D
:10030E00F583E06F60030203D690005BF0A3F090DC
:10031E00005BE0FEA3E0FFC39405EE940050329024
:10032E00005BE0FCA3E0FD2418F58274003CF5832D
:10033E00E0FB74F32DF582743A3CF583E493B50338
:10034E001090005CE004F070C690005BE004F0805A
:10035E00BEEF64054E707390005BF0A37406F090D0
:10036E00002BE0FF90005BE0FCA3E0FDC39FEC944C
:10037E0000502874172DF58274003CF583E0FF744D
:10038E00122DF58274003CF583EFF090005CE004D2
:10039E00F070CC90005BE004F080C490002BE02461
:1003AE00FBF0900017E04480F07B017A0079179003
:1003BE00002BE0FD122CA290002BE02415F582E418
:1003CE003400F583EFF080078000E4900017F09082
:1003DE000017E02456700302097124FE700302090F
:1003EE00C7147003020F612402600302101F9000F5
:1003FE0018E01470030204F514700302078E240231
:10040E006003020909902A7C122C99902A7CE493AD
:10041E002415F582E43400F583E06F704D90005B97
:10042E00F0A304F090005BE0FEA3E0FFD39408EE8F
:10043E009400502EEF25E0FFEE33FE74A42FF582CC
:10044E00742A3EF583E493FE740193FF122F471234
:10045E002C0C90005CE004F070CA90005BE004F09D
:10046E0080C2900014E054E08008900014E054E044
:10047E00440190001AF0900013E0900019F0902AB9
:10048E007D122C99902A7DE493FE2415F582E43496
:10049E0000F583EFF074162EF582E43400F58374C4
:1004AE0055F0E490005BF0A3F0902A7DE493FF906A
:1004BE00005BE0FCA3E0FDC39FEC94004003021040
:1004CE001F74172DF58274003CF583E0FF1230493E
:1004DE007F057E00122D4690005CE004F070CA90FD
:1004EE00005BE004F080C2902A7EE493FD90002B26
:1004FE00E0C39D50030206F47B017A007917122C9B
:10050E00A2902A7EE4932415F582E43400F583E06C
:10051E006F60030206EA900019E0C3940F74809492
:10052E00805002804790001AE0FFD3940C748094A0
:10053E00805003EF7002803490001BE0FFD3941FB5
:10054E00748094805003EF7002802190001CE0D3E1
:10055E009417748094805014A3E0943B748094801C
:10056E00500AA3E0943B74809480400B900014E0FA
:10057E0054E044040206FC90005BE4F0A37402F025
:10058E0090005BE0FEA3E0FFC39408EE9400503BA6
:10059E0074172FF58274003EF583E0FF123036900B
:1005AE00005BE0FCA3E0FDC374089DFDE49CFC74BD
:1005BE00412DF58274003CF583EFF090005CE00471
:1005CE00F070BD90005BE004F080B5900042E090CA
:1005DE000041F0900043E0900042F0900044E09023
:1005EE000043F0900045E0900044F0E4A3F0122E9A
:1005FE00727F647E00122D46122A1490001AE0FFBC
:10060E00900046E0FE6F6018EF2401FDE433FCEE2F
:10061E006D7001EC600A900014E054E04401800615
:10062E00900014E054E090001AF0900019E0FF9052
:10063E000047E0FE6F601AEF2401FDE433FCEE6D1F
:10064E007001EC600C900014E054E0440190001A2C
:10065E00F090001BE0FF900044E0FE6F601AEF2464
:10066E0001FDE433FCEE6D7001EC600C900014E0C3
:10067E0054E0440190001AF090001CE0FF900043FB
:10068E00E0FE6F6026EFFD7C002401FBEC33FAEEFA
:10069E00FF6B7001EA6014ED64177003EF600C904D
:1006AE000014E054E0440190001AF090001DE0FFA9
:1006BE00900042E0FE6F603AEFFD7C002401FBECFF
:1006CE0033FAEEFF6B7001EA6028ED643B7003EFC6
:1006DE006020900014E054E044018012900014E079
:1006EE0054E044028008900014E054E0440390006B
:1006FE001AF0900013E0900019F07B017A00791740
:10070E00902A7FE493FD122CA2902A7FE493FE247C
:10071E0015F582E43400F583EFF074162EF582E4BD
:10072E003400F5837455F0E490005BF0A3F0902A4A
:10073E007FE493FF90005BE0FCA3E0FDC39FEC948D
:10074E0000502674172DF58274003CF583E0FF12DD
:10075E0030497F057E00122D4690005CE004F0705B
:10076E00CD90005BE004F080C590001AE0541F604D
:10077E000302101F90003474A5F0A374360208E033
:10078E00902A80E493FD90002BE0C39D5003020855
:10079E00497B017A007917122CA2902A80E49324C7
:1007AE0015F582E43400F583E06F600302083F7BA9
:1007BE00017A007919902AB893FF74019390007210
:1007CE00CFF0A3EFF0E4A3F07D051221D37B017AE5
:1007DE0000791E902AB8E493FC740193FD90007387
:1007EE007405F0122BC090001AE0FF90001FE06F0E
:1007FE009000146007E054E044018003E054E09060
:10080E00001AF0900019E0FF90001EE06F600C904F
:10081E000014E054E0440190001AF090001BE0FF39
:10082E00900020E06F6020900014E054E0440180BE
:10083E0012900014E054E044028008900014E0543A
:10084E00E0440390001AF0900013E0900019F07B42
:10085E00017A007917902A81E493FD122CA2902A36
:10086E0081E493FE2415F582E43400F583EFF074F1
:10087E00162EF582E43400F5837455F0E490005B97
:10088E00F0A3F0902A81E493FF90005BE0FCA3E0DC
:10089E00FDC39FEC9400502674172DF58274003C16
:1008AE00F583E0FF1230497F057E00122D46900041
:1008BE005CE004F070CD90005BE004F080C5900029
:1008CE001AE0541F600302101F900036745AF0A3F2
:1008DE0074E7F090002C7401F0FB7A007934902AC2
:1008EE00B4E493FF740193900072CFF0A3EFF0A3E2
:1008FE00741EF07D041221D302101F900013E0909D
:10090E000019F0900014E054E0440590001AF07BBA
:10091E00017A0079177D06122CA290001BEFF0A32E
:10092E007455F0E490005BF0A3F090005BE0FEA342
:10093E00E0FFC39406EE9400400302101F74172FBD
:10094E00F58274003EF583E0FF1230497F057E008C
:10095E00122D4690005CE004F070CF90005BE00436
:10096E00F080C7900019E0FFD39409748094804002
:10097E000302101FEF902A9093FF900018E09F4003
:10098E000302101F90002BE0C394057480948050D6
:10099E000302101F7B017A0079177D06122CA2909C
:1009AE00001BE06F600302101F900019E0FF900023
:1009BE0018E0FD1216D002101F900018E024FE70F1
:1009CE0003020AD0147003020B84147003020C404D
:1009DE00147003020D37147003020E042405600315
:1009EE00020EF97B017A007917902A86E493FD12A4
:1009FE002CA2902A86E4932415F582E43400F58324
:100A0E00E0900014B50705E054E08005E054E044A2
:100A1E000290001AF0900013E0900019F0122A14C0
:100A2E00900047E090001BF0900046E090001CF014
:100A3E00900044E090001DF0900043E090001EF006
:100A4E00900042E090001FF0900041E0900020F0F6
:100A5E007B017A007917902A87E493FD122CA290DD
:100A6E002A87E493FE2415F582E43400F583EFF033
:100A7E0074162EF582E43400F5837455F0E490007C
:100A8E005BF0A3F0902A87E493FF90005BE0FCA359
:100A9E00E0FDC39FEC9400400302101F74172DF568
:100AAE008274003CF583E0FF1230497F057E001210
:100ABE002D4690005CE004F070CA90005BE004F0FC
:100ACE0080C27B017A007917902A88E493FD122C5C
:100ADE00A2902A88E4932415F582E43400F583E08D
:100AEE00900014B50705E054E08005E054E04402A0
:100AFE0090001AF0900013E0900019F090001B7413
:100B0E0001F0E4A3F0A3F0A3F0A3F0A3F0902A89E0
:100B1E00122C9A902A89E493FE2415F582E434006F
:100B2E00F583EFF074162EF582E43400F5837455D8
:100B3E00F0E490005BF0A3F0902A89E493FF90001C
:100B4E005BE0FCA3E0FDC39FEC9400400302101F8A
:100B5E0074172DF58274003CF583E0FF1230497F47
:100B6E00057E00122D4690005CE004F070CA9000E5
:100B7E005BE004F080C27B017A007917902A8AE448
:100B8E0093FD122CA2902A8AE4932415F582E43464
:100B9E0000F583E0900014B50705E054E08005E011
:100BAE0054E0440290001AF0900013E0900019F007
:100BBE00900059E0FCA3E0FDEC90001BF0A3EDF0DB
:100BCE007B017A007917902A8BE493FD122CA29068
:100BDE002A8BE493FE2415F582E43400F583EFF0BE
:100BEE0074162EF582E43400F5837455F0E490000B
:100BFE005BF0A3F0902A8BE493FF90005BE0FCA3E4
:100C0E00E0FDC39FEC9400400302101F74172DF5F6
:100C1E008274003CF583E0FF1230497F057E00129E
:100C2E002D4690005CE004F070CA90005BE004F08A
:100C3E0080C27B017A007917902A8CE493FD122CE6
:100C4E00A2902A8CE4932415F582E43400F583E017
:100C5E00900014B50705E054E08005E054E044022E
:100C6E0090001AF0900013E0900019F07B017A00CA
:100C7E00791B902AB8740193240AFDE4933400FC86
:100C8E009000737404F0122BC090001BE090001FB4
:100C9E00F090001CE090001BF090001FE090001CF4
:100CAE00F0A3E090001FF090001EE090001DF09069
:100CBE00001FE090001EF07B017A007917902A8DBC
:100CCE00E493FD122CA2902A8DE493FE2415F58256
:100CDE00E43400F583EFF074162EF582E43400F55B
:100CEE00837455F0E490005BF0A3F0902A8DE493AA
:100CFE00FF90005BE0FCA3E0FDC39FEC940040037B
:100D0E0002101F74172DF58274003CF583E0FF125C
:100D1E0030497F057E00122D4690005CE004F07095
:100D2E00CA90005BE004F080C27B017A00791790D4
:100D3E002A82E493FD122CA2902A82E4932415F5C4
:100D4E0082E43400F583E0900013B5070DE09000C7
:100D5E0019F0900014E054E0800DE0900019F0902E
:100D6E000014E054E0440290001AF07B017A0079FE
:100D7E001B902AB8E493FC740193FD9000737405E4
:100D8E00F0122BC07B017A007917902A83E493FD31
:100D9E00122CA2902A83E493FE2415F582E43400EB
:100DAE00F583EFF074162EF582E43400F583745556
:100DBE00F0E490005BF0A3F0902A83E493FF9000A0
:100DCE005BE0FCA3E0FDC39FEC9400400302101F08
:100DDE0074172DF58274003CF583E0FF1230497FC5
:100DEE00057E00122D4690005CE004F070CA900063
:100DFE005BE004F080C27B017A007917902A84E4CC
:100E0E0093FD122CA2902A84E4932415F582E434E7
:100E1E0000F583E0900013B5070DE0900019F090F7
:100E2E000014E054E0800DE0900019F0900014E002
:100E3E0054E0440290001AF0E490005BF0A3F090AE
:100E4E00005BE0FEA3E0FF24F0F582743A3EF583EA
:100E5E00E493FD741B2FF58274003EF583EDF09044
:100E6E00005CE004F0700690005BE004F090005B24
:100E7E00E07004A3E0640870C67B017A00791790D5
:100E8E002A85E493FD122CA2902A85E493FE241564
:100E9E00F582E43400F583EFF074162EF582E43417
:100EAE0000F5837455F0E490005BF0A3F0902A8572
:100EBE00E493FF90005BE0FCA3E0FDC39FEC940085
:100ECE00400302101F74172DF58274003CF583E069
:100EDE00FF1230497F057E00122D4690005CE00423
:100EEE00F070CA90005BE004F080C2900013E090B6
:100EFE000019F0900014E054E0440590001AF07BC5
:100F0E00017A0079177D06122CA290001BEFF0A338
:100F1E007455F0E490005BF0A3F090005BE0FEA34C
:100F2E00E0FFC39406EE9400400302101F74172FC7
:100F3E00F58274003EF583E0FF1230497F057E0096
:100F4E00122D4690005CE004F070CF90005BE00440
:100F5E00F080C7900018E014600302101F7B017A26
:100F6E00007917902A8EE493FD122CA2902A8EE41B
:100F7E00932415F582E43400F583E0900014B50750
:100F8E0010E0541F4420F054E090001AF0D2078075
:100F9E0009E054E0440290001AF0900013E0900033
:100FAE0019F07B017A007917902A8FE493FD122CA9
:100FBE00A2902A8FE493FE2415F582E43400F58383
:100FCE00EFF074162EF582E43400F5837455F0E4D8
:100FDE0090005BF0A3F0902A8FE493FF90005BE00B
:100FEE00FCA3E0FDC39FEC9400502674172DF582F0
:100FFE0074003CF583E0FF1230497F057E00122D10
:10100E004690005CE004F070CD90005BE004F08050
:10101E00C5E490002BF0900048F0439810C2982041
:10102E000B03021157C20B122C0C122A147B017ADD
:10103E0000795D902AB8E493FC740193FD900073DF
:10104E007405F0122BC090005DE0C394FF74809481
:10105E00805016A3E0C394FF74809480500BA3E0DD
:10106E00C394FF74809480401690005D740FF0A3BB
:10107E00740CF0A3741FF0A37417F0A3743BF090DC
:10108E00005DE0FF900047E0FEC39F500302115742
:10109E00EE9F90005DF06405705CA3E0FF9000464B
:1010AE00E0FED39F400690005DE004F090005EE00D
:1010BE006E7043A3E0FF900044E0FED39F40069085
:1010CE00005DE004F090005FE0B5062AA3E0FF901B
:1010DE000043E0FED39F400690005DE004F09000D8
:1010EE0060E0B50611A3E0FF900042E0D39F4006FA
:1010FE0090005DE004F090005DE0D3940574809460
:10110E0080403CC2A6200941D2097B017A00795D5C
:10111E00902AB4E493FC740193FD9000737401F073
:10112E00122BC090005DE0FF600B902A98E493FEB6
:10113E00EFD39E4014122C0C7F08121321800A90BC
:10114E00002CE064017002D2A6A287E43390005610
:10115E00F0E070467F1EFE122D46900056E0705352
:10116E00200306900038F0D203900038E0C39406B6
:10117E0074809480401F200F14D20FD2807F1E7E69
:10118E0000122D46C2807F1E7E00122D46D2A290E6
:10119E0000387408F01224D580193003167F1E7E95
:1011AE0000122D46900056E06009C203C20F2007C0
:1011BE0002C2A2900015E0FEA3E0FFC390005AE029
:1011CE009F900059E09E5003021265122C0C2007CE
:1011DE0003020176900014E0541F4440F0E4F5B190
:1011EE0075B20130054CC205900057E004F0E0FFE7
:1011FE007E0064037002D20CD3EF9405EE648094EB
:10120E0080402F9000577405F0D2A2900030E05429
:10121E00077011D2807F1EFE122D46C2807F1E7E69
:10122E0000122D46900030E004F0700690002FE082
:10123E0004F0300C0CC20CD208122C0C7F021213CC
:10124E0021900057E0C394037480948050030201F0
:10125E00761228D5020176D390005AE0942390009E
:10126E0059E09400505A122C0C200703020176907C
:10127E000014E0541F4460F0E4900057F090002FEB
:10128E00F0A3F0D2A4C2A2900058E004F0E0FF7EDA
:10129E000064017002D20ED3EF9402EE648094804B
:1012AE0040069000587402F01227AF200E03020180
:1012BE0076C20ED20A122C0C7F0412132102017672
:1012CE00300709900014E0541F4420F0122C0CC279
:1012DE000CE4900057F090002FF0A3F0C20E900097
:1012EE0058F030080AC208122C0C7F03121321305A
:1012FE000A0CC20AC20E122C0C7F05121321D2A4A4
:10130E00D2A5C2A1C2A0C280300F03020176C2A232
:03131E0002017653
:030023000229416E
:0D294100C0E0C083C082C0D075D000C007C8
:10294E00900098E4F0C211309844C298E59930D0C6
:10295E0002D211A29A301101B3402C90002BE0FF4D
:10296E0004F074172FF582E43400F583E599F090A6
:10297E00002BE0C3941374809480400B5398EFC2E5
:10298E00989000487401F090003AE4F08002C299E9
:02299E00D2CA9B
:0B29A000D007D0D0D082D083D0E0322E
:03002B0002230BA2
:10230B00C0E0C083C082C0D0C2CF900000E004F018
:10231B0090003AE004F0D39402748094804026E459
:10232B00F090002BE0940474809480400F90004850
:10233B00E070125398EFC29804F08009900048E4C3
:10234B00F090002BF0900051E004F07006900050DC
:10235B00E004F0900001E004F0900050E07004A362
:10236B00E06414701A200702B283900050E4F0A3CB
:10237B00F0900054E004F07006900053E004F090ED
:10238B000053E0B40207A3E0B4EE02D207900001C1
:10239B00E064647028F0D205900006E004F070064B
:1023AB00900005E004F090004DE004F07006900002
:1023BB004CE004F0300306900038E004F090000588
:1023CB00E07004A3E064047008900005F0A3F0D261
:1023DB000290004CE0B40E0EA3E0B41009D20B90A7
:0F23EB00004CE4F0A3F0D0D0D082D083D0E03209
:03004300022E4347
:102E4300C0E0C083C082C0D075C7AA75C75553A35D
:102E5300F7900033E004F0E0C39402748094804060
:0F2E6300057402F0C2ADD0D0D082D083D0E0325F
:03005B000200267A
:05002600C2FCC2FB3228
:1024C40041009D0041009C00430099003200C1126C
:10300E00A2AF9212C2AF75C7AA75C75553A3F7A246
:04301E001292AF2239
:102D7B008FF0A4FFEC25E024A4F582E4342AF5833C
:102D8B007401932FFEE49335F0900094F0A3CEF0F2
:102D9B00A2AF9212C2AF75C7AA75C755439F01A2C6
:042DAB001292AF22AF
:10302200A2AF9212C2AF75C7AA75C755539FFEA22F
:043032001292AF2225
:102EA00093FE740193FFFD900075E0FC2DF5A6ECF8
:092EB000FD7C00EF2DEC3EF5A7BE
:102EB900A2AF9212C2AF75C7AA75C75543A401A2A2
:042EC9001292AF2290
:0816D000900062EFF0A3EDF0C1
:1016D800900062E0FE5480900065F0EE547F900028
:1016E80062F0C39418748094804003021A5AE0FF91
:1016F800902A9093FE900063E09E4003021A5AE4F9
:1017080090000DF090000CF090000BF090000AF0A3
:10171800EF24F770030217B72409600302185190E9
:10172800001774AAF0E4A3F0A3F0A37408F09000E3
:10173800647401F0900064E0FFD39408748094808E
:10174800501A122595900064E0241AF582E43400BA
:10175800F583EFF0900064E004F080D87B017A0014
:101768007917900062E0902ABC93FD122CA2900099
:1017780023EFF0A37455F0E4900064F0900062E069
:10178800902ABC93FF900064E0FEC39F4003021AB6
:101798005A74172EF582E43400F583E0FF123049BD
:1017A8007F057E00122D46900064E004F080CD9005
:1017B800001774AAF0E4A3F0A37409F0A37406F068
:1017C800122A14900047E024D0FDE4340790001B4F
:1017D800F0AF05A3EFF0900046E090001DF09000F8
:1017E80044E090001EF0900043E090001FF090004D
:1017F80042E0900020F07B017A007917900062E0C7
:10180800902ABC93FD122CA2900021EFF0A37455EE
:10181800F0E4900064F0900062E0902ABC93FF909E
:101828000064E0FEC39F4003021A5A74172EF58223
:10183800E43400F583E0FF1230497F057E00122D65
:1018480046900064E004F080CD900063E0700302ED
:101858001A5A122D9BE4F5AF900062E025E024A40B
:10186800F582E4342AF583E493FE740193F5A6EE39
:10187800F5A7E4900064F0900062E0902A9093FF4E
:10188800900064E0C39F502F122EB9E4FFFE122D82
:1018980046900018E5AEF0900063E0FF900018E075
:1018A8006F6014900062E0902A9A9325A6F5A6909E
:1018B8000064E004F080C0900062E0FF902A9093FA
:1018C800FE900064E0C39E40030219DCEF640170DF
:1018D80036F0900064E0C394047480948050280526
:1018E800A6122EB90000000000E4FFFE122D46905B
:1018F8000064E0240AF582E43400F583E5AEF09054
:101908000064E004F080CB900064740AF0900064F6
:10191800E0D3940574809480402805A6122EB9005F
:1019280000000000E4FFFE122D46900064E024173A
:10193800F582E43400F583E5AEF0900064E014F03D
:1019480080CB12302290001DE024D0E434079000B0
:101958001CF0A3E024D0FFE43407EFF090001774E4
:10196800AAF0900019E0F0900062E0FF902AC69378
:1019780090001AF0900018E090001BF07B017A00AC
:101988007917EF902ABC93FD122CA2900022EFF059
:10199800A37455F0900065E06003021A5A90006441
:1019A800F0900062E0902ABC93FF900064E0FEC3D0
:1019B8009F4003021A5A74172EF582E43400F58307
:1019C800E0FF1230497F057E00122D46900064E04A
:1019D80004F080CD900062E0640870739000177482
:1019E800AAF0A37401F0900062E0FF902AC69390D9
:1019F800001AF0E4A3F0A3F0A3F0A3F0A3F0A3F07F
:101A0800A3F07B017A007917EF902ABC93FD122C82
:101A1800A2900022EFF0A37455F0E4900064F090D7
:101A28000062E0902ABC93FF900064E0FEC39F50E0
:101A38001E74172EF582E43400F583E0FF12304956
:101A48007F057E00122D46900064E004F080D012DD
:021A580030223A
:011A5A002269
:0E21D30090006EEBF0A3EAF0A3E9F0A3EDF0AC
:1021E100700302230A900074E0FFC394807480940A
:1021F10080400302230A900071E02FFFE433FEC305
:10220100EF9480EE64809480400302230A122F3DF4
:10221100122D9BE4900075F0900075E0C3948074DA
:10222100809480502BE4F5AF900072E0FEA3E012A1
:102231002EA5E4FFFE122D4675AF21902ABAE412B5
:102241002EA0E4FFFE122D46900075E004F080C838
:10225100123022900072E0FEA3E0FF122F47122DF0
:102261009BE4900075F0900075E0FFFD7C00C39445
:1022710080748094804003022307900074E0FEEF95
:10228100C39E404AEEFF900071E02FFFE433FEC38E
:10229100ED9FEE6480F8748098503375AF21A3E010
:1022A100FEA3E0FFFD900075E0FC2DF5A6ECFD7CA2
:1022B10000EF2DEC3EF5A790006EE0FBA3E475F076
:1022C10001121E6FA9F0FA121DDFF5AE8027E4F5A9
:1022D100AF902ABA122EA075AF21900072E0FEA332
:1022E100E0FFFD900075E0FC2DF5A6ECFD7C00EF14
:1022F1002DEC3EF5A7122EB90000000000900075EC
:09230100E004F002226712302210
:01230A0022B0
:102BC00090006EEBF0A3EAF0A3E9F0900073E060F0
:102BD0003A122D9BE4F5AFEDF5A6ECF5A790007346
:102BE000E0FF14F0EF6021122EB900000000009009
:102BF000006EE0FBA3E475F001121E6FA9F0FAE588
:0C2C0000AE121E2505A680D5123022223F
:0A2F3D00902ABAE493FE740193FF9A
:102F4700122D9B75AF22EFF5A6EEF5A7122EB9004D
:072F5700000000000230221F
:05259500900066EFF06C
:10259A007E00D39400748094804009EF941774806D
:1025AA00948040037F0022122D9BE4F5AF900066D1
:1025BA00E025E024A4F582E4342AF583E493FE744A
:1025CA000193F5A6EEF5A7E4900068F0900067F095
:1025DA00900066E0902A9093FF900067E0C39F50B6
:1025EA004D122EB9900069E5AEF0900066E0FE90BB
:1025FA002A9093FF900069E0FDD39F500C900068E9
:10260A00E0FFED9F4003ED7009123022900067E071
:10261A00FF22EE902A9A9325A6F5A6900069E090EB
:10262A000068F0122C0C900067E004F080A21230CF
:10263A0022900066E0902A9093FF900067E0B50729
:04264A0001227F00EA
:01264E002269
:0513210090008FEFF0C9
:10132600D394007480948050030216CFEF94177400
:1013360080948040030216CF122F3DE4900090F077
:10134600900093F0900091F090008FE0902A909397
:10135600FF900091E0FEC39F400302149A90008F15
:10136600E0FD902A9A93FFEE8FF0A4FFED25E0248E
:10137600A4F582E4342AF5837401932FFEE49335B1
:10138600F0900094F0A3CEF0122D9BE4F5AF900000
:1013960094E0FEA3E0F5A6EEF5A7E4900092F090A7
:1013A600008FE0902A9A93FF900092E0C39F501A14
:1013B600122EB9E0249EF582E43400F583E5AEF002
:1013C60005A6900092E004F080D51230229000919C
:1013D600E02401FFE433FE90009EE0FDFB7A00B5B9
:1013E6000721EAB5061D90008FE0902A9093FFED45
:1013F600D39F500F900090E0FF90009EE09F400327
:10140600EB7021EBF44A700302149A900093E00407
:10141600F0D3940274809480507A7F647E00122FF9
:101426009402138E90009EE0900090F090008FE062
:10143600902A9A93FF900091E08FF0A4FF902ABA29
:10144600122D8B75AF21900094E0FEA3E0F5A6EE79
:10145600F5A7E4900092F090008FE0902A9A93FF0F
:10146600900092E0FEC39F501F749E2EF582E434D6
:1014760000F583E0F5AE122EB9000000000005A6C7
:10148600900092E004F080CF123022900091E004A8
:10149600F002134E90008FE025E024A4F582E43498
:1014A6002AF583122F4090008FE0902A9093FB90AC
:1014B6000091E0C39B5013902ABAE493FD74019304
:1014C600900096CDF0A3EDF0802290008FE0902A58
:1014D6009A93FD902ABA7401932DFEE493340090FA
:1014E6000096F0A3CEF0EB14900091F0E4900090FB
:1014F600F0900091E0FD900090E0FFC39D40030254
:10150600162190008FE0902A9A93FEEF8EF0A4FFAA
:10151600900097E02FFE900096E0122D92E4F5AF32
:10152600900094E0FEA3E0F5A6EEF5A7E490009205
:10153600F090008FE0902A9A93FF900092E0C39F6C
:10154600501A122EB9E0249EF582E43400F583E5A4
:10155600AEF005A6900092E004F080D512302290FD
:10156600008FE0FC902A9A93FF900090E0122D7B6A
:1015760075AF21900094E0FEA3E0F5A6EEF5A790E6
:101586002ABAE493FE740193FFD3900097E09F90EC
:101596000096E09E4043900090E004F5AE122EB90E
:1015A60005A69000927401F090008FE0902A9A931D
:1015B600FF900092E0FEC39F5055749E2EF582E484
:1015C6003400F583E0F5AE122EB9000000000005E8
:1015D600A6900092E004F080CFE4900092F0900094
:1015E6008FE0902A9A93FF900092E0FEC39F501FCF
:1015F600749E2EF582E43400F583E0F5AE122EB922
:10160600000000000005A6900092E004F080CF12D2
:101616003022900090E004F00214F790008FE0FC76
:10162600902A9A93FFED122D7B75AF21900094E0DE
:10163600FEA3E0F5A6EEF5A7900091E004F5AE1244
:101646002EB9000000000005A690008FE06401702E
:1016560042900002A3E0F5AE122EB9000000000091
:1016660005A6900002E0F5AE122EB90000000000BB
:1016760005A6900015A3E0F5AE122EB900000000F5
:101686000005A6900015E0F5AE122EB90000000088
:101696000005A69000907401F0900090E0FFC394BE
:1016A6000674809480501F743B2FF582E43400F555
:1016B60083E0F5AE122EB9000000000005A69000EA
:0916C60090E004F080D312302200
:0116CF0022F8
:102C0C00900033E0C3940274809480403BC2A2C213
:102C1C0080D2A5D2A4D2A6C2A1C2A0D28312302245
:102C2C007F06121321E4900033F0C207900053F09A
:102C3C00A3F0C2AF75C7AA75C755539FFD75C7AA38
:092C4C0075C755439F8080EA2200
:0530A100D2AED2AF2207
:102B2200EFB40800504A902B2FF8282873022B4745
:102B3200022B4B022B4F022B53022B57022B5E020E
:102B42002B65022B6CC2FA800EC2FA8011C2FA8087
:102B520014C2FA8017D2FAC2F9C2F822D2FAC2F922
:102B6200D2F822D2FAD2F9C2F822D2FAD2F9D2F8A3
:012B72002240
:1029AB00EFB4080050629029B8F82828730229D098
:1029BB000229D80229E00229E80229F00229F802AB
:1029CB002A00022A0A43F60275B102802E43F6044E
:1029DB0075B104802643F60875B108801E43F610C6
:1029EB0075B110801643F62075B120800E43F6406A
:1029FB0075B140800643F68075B180E4F5B2224391
:092A0B00A20875B540E4F5B622FD
:0A309100C2FCD2FB438701022C0CA5
:0C308500E4FF1229AB122B2243E1802251
:0F305900E4FF1229AB122B221230A143E1802297
:102AD000123091AFF890004AE4F0A3EFF090004A72
:102AE000E0FEA3E07806CEC313CE13D8F9F0EE9043
:102AF000004AF0AFE290000FE4F0A3EFF090000F77
:102B0000E0FEA3E07802C333CE33CED8F9FF9000C5
:102B10004BE02FFF90004AE03EFE90000FF0A3EF45
:022B2000F022A1
:10204400900084121FE600000000E4900088F0A3D2
:10205400F0A3F0A3F0A3EBF0A3EAF0A3E9F0E4907B
:102064000083F0900083E0C3940A7480948040035A
:1020740002216E122C0C900083E0703390008CE0EF
:10208400FBA3E0FAA3E0F9121E85FFAEF0E4FCFD29
:10209400900084121FDA900084A3A3E0FEA3E0FF63
:1020A40090008AEEF0A3EFF0900088EE0221619098
:1020B4000084E0F8A3E0F9A3E0FAA3E0FBC000C0C9
:1020C40001C002C00390008CE0FBA3E0FAA3E0F996
:1020D400900083E075F002A4F58285F083121EB0AF
:1020E400FFE4FCFDD003D002D001D000EB2FFFEAC7
:1020F40035F0FEED39FDEC38FC900084121FDA90C7
:10210400008CE0FBA3E0FAA3E0F9900083E075F013
:1021140002A4F58285F083121EB0FFAEF0C39000D6
:1021240089E09F900088E09E5005EEF0A3EFF0D385
:1021340090008BE09F90008AE09E402590008CE008
:10214400FBA3E0FAA3E0F9900083E075F002A4F5A4
:102154008285F083121EB0FF90008AE5F0F0A3EFB1
:10216400F0900083E004F0022067900084E0FCA378
:10217400E0FDA3E0FEA3E0FFC006C00790008AE0F4
:10218400FEA3E0FF900089E02FFF900088E03EABC3
:1021940007FAD007D006C3EF9BFFEE9AFEED94003A
:1021A400FDEC9400FC900084121FDA900084E0FCA3
:1021B400A3E0FDA3E0FEA3E0FF7803121FC7900095
:0E21C40084121FDA900084A3A3E0FEA3E0FFC4
:0121D20022EA
:102CD400E4900082F0900082E0C3940A74809480AF
:102CE400501F122AD0900082E025E0246EF582E481
:102CF4003400F583EEF0A3EFF0900082E004F0805E
:0A2D0400D47B017A00796E022044AE
:102F1900900041E0547FF0A3E0547FF0A3E0543FD8
:102F2900F0A3E0543FF0A3E05407F0A3E0541FF0EE
:042F3900A3E0F022FF
:0F306800EFC4540F75F00AA4FEEF540F2EFF2291
:06309B0075BEFFD2C62243
:102FC900E4FFD2C5E5C020E30B0FEFD394FA748078
:062FD900948040F0C2C527
:012FDF0022CF
:102F5E00E4FFD2C5D2C4C2C3E5C020E30B0FEFD34A
:0A2F6E0094FA7480948040F0C2C50C
:012F78002236
:102FAF00E4FFD2C4C2C3E5C054106410700B0FEF1E
:092FBF00D394FA7480948040ED73
:012FC80022E6
:102FE000E4FE8FBCC2C3E5C020E30B0EEED394FA1F
:062FF0007480948040F0A3
:012FF60022B8
:05000300122FC97F640B
:10000800E4FE8FBCC2C3E5C020E30B0EEED394FA26
:060018007480948040F0AA
:01001E0022BF
:102FF700E4FE8FBCC2C3E5C020E30B0EEED394FA08
:063007007480948040F08B
:01300D0022A0
:062D0E007B017A0079410F
:102D1400E4FFEFC39D502A121DDFF5BCC2C3E4904B
:102D24000062F0E5C020E30F900062E004F0D39469
:102D3400FA7480948040EC740129F9E43AFA0F8023
:012D4400D1BD
:012D4500226B
:052B730090006EEDF082
:102B7800E4FE90006EE0FDEEC39D5025D2C2C2C3B4
:102B8800E4FFE5C020E30B0FD3EF94FA7480948040
:102B980040F0E5BC121E25740129F9E43AFA0E80CA
:102BA800D1C2C2C2C3E4FFE5C020E30B0FEFD39448
:072BB800FA7480948040F0E4
:012BBF0022F3
:102E7200E4FF1200037F10122FF7900044E0FFA33B
:102E8200E0900044F0A3EFF07D07122D0E90004475
:0E2E9200E0FFA3E0900044F0A3EFF0022FAFAA
:102A1400E4FD1200037F10122FF7122F5E7F651260
:102A240000087B017A0079417D07122B73900045E1
:102A3400E0FF900044E02FF0900044E0C39FFFA328
:102A4400F0900044E0C39FF0122F19E4FDEDC3940D
:102A54000774809480501E74412DF582E43400F58F
:102A640083E0FF12306874412DF582E43400F5836D
:082A7400EFF00D80D8022FAF36
:10002E001200037F1F122FF7E4900041F07D0112A2
:05003E002D0E022FAFA2
:102F7900D28CEF4E6012758ACA758CFF308DFDC2F6
:0B2F89008DEF1F70ED1E80EAC28C224D
:102D4600900076EEF0A3EFF0122C0CD28C90007669
:102D5600E07002A3E0601B758A67758CEA308DFD12
:102D6600C28D900077E024FFF0900076E034FFF00B
:052D760080DBC28C228D
:102F9400D28CEF4E6012758A67758CEA308DFDC253
:0B2FA4008DEF1F70ED1E80EAC28C2232
:102EF400D28CEF4E601C758ACA758CFF208D0A90A7
:102F0400002BE060F7D2CA80F3C28DEF1F70E31E7E
:052F140080E0C28C22E8
:102ECD007598D2E4F587758920AB07AA06A905A8E0
:102EDD0004FF7EE1FDFC121F24EFF404F58D90003C
:072EED00097403F0D28E22EC
:0F304900C210EF30D002D210EFA2D0929BF599B7
:013058002255
:1028550002005EE493A3F8E493A34003F68001F23B
:1028650008DFF48029E493A3F85407240CC8C33384
:10287500C4540F4420C8834004F456800146F6DF53
:10288500E4800B01020408102040809023FAE47EC6
:10289500019360BCA3FF543F30E509541FFEE49348
:1028A500A360010ECF54C025E060A840B8E493A30F
:1028B500FAE493A3F8E493A3C8C582C8CAC583CA3A
:1028C500F0A3C8C582C8CAC583CADFE9DEE780BEF2
:0124D4000007
:101DDF00BB010689828A83E0225002E722BBFE0202
:091DEF00E32289828A83E4932235
:101DF800BB010CE58229F582E5833AF583E02250A0
:101E080006E92582F8E622BBFE06E92582F8E222E9
:0D1E1800E58229F582E5833AF583E4932203
:101E2500BB010689828A83F0225002F722BBFE019C
:021E3500F32296
:101E3700F8BB010DE58229F582E5833AF583E8F0E1
:101E4700225006E92582C8F622BBFE05E92582C88D
:021E5700F22275
:101E5900C5F0F8A3E028F0C5F0F8E5821582700214
:061E69001583E038F022B1
:101E6F00A3F8E0C5F025F0F0E58215827002158326
:061E7F00E0C838F0E82283
:101E8500BB010A89828A83E0F5F0A3E02250068728
:101E9500F009E71922BBFE07E3F5F009E3192289EA
:0B1EA500828A83E493F5F0740193221D
:101EB000BB0110E58229F582E5833AF583E0F5F070
:101EC000A3E0225009E92582F886F008E622BBFE4D
:101ED0000AE92582F8E2F5F008E222E5832AF58393
:081EE000E993F5F0A3E9932258
:101EE80075F008758200EF2FFFEE33FECD33CDCCB1
:101EF80033CCC58233C5829BED9AEC99E582984034
:101F08000CF582EE9BFEED9AFDEC99FC0FD5F0D610
:101F1800E4CEFBE4CDFAE4CCF9A88222B800C1B93A
:101F28000059BA002DEC8BF084CFCECDFCE5F0CB78
:101F3800F97818EF2FFFEE33FEED33FDEC33FCEBB1
:101F480033FB10D703994004EB99FB0FD8E5E4F96C
:101F5800FA227818EF2FFFEE33FEED33FDEC33FC59
:101F6800C933C910D7059BE99A4007EC9BFCE99A4D
:101F7800F90FD8E0E4C9FAE4CCFB2275F010EF2F92
:101F8800FFEE33FEED33FDCC33CCC833C810D70792
:101F98009BEC9AE899400AED9BFDEC9AFCE899F8CD
:0E1FA8000FD5F0DAE4CDFBE4CCFAE4C8F92260
:101FB600EB9FF5F0EA9E42F0E99D42F0E89C45F081
:011FC60022F8
:101FC700E8600FECC313FCED13FDEE13FEEF13FFF8
:031FD700D8F1221C
:0C1FDA00ECF0A3EDF0A3EEF0A3EFF0227A
:101FE600A8828583F0D083D082121FFD121FFD12B6
:101FF6001FFD121FFDE473E493A3C583C5F0C583DB
:10200600C8C582C8F0A3C583C5F0C583C8C582C844
:0120160022A7
:10201700EC8EF0A4CCC5F0CCCDF8EFA4CEC5F02D56
:10202700FDE43CFCE8A42EC8C5F03DFDE43CFCEF14
:0D203700A4FFE5F028FEE43DFDE43CFC22A2
:00000001FF
